:020000040800F2
:10000000183E002099010008FB410008BF35000898
:10001000F94100087F120008F94C000800000000B8
:1000200000000000000000000000000001010008C6
:10003000BD1200080000000045010008D547000877
:10004000B3010008B3010008B3010008B3010008C0
:10005000B3010008B3010008B3010008B3010008B0
:10006000B3010008B3010008B3010008B3010008A0
:10007000B3010008B3010008B3010008B301000890
:10008000B3010008B3010008B3010008B301000880
:10009000B3010008B3010008B3010008B301000870
:1000A000B3010008B3010008B3010008B301000860
:1000B000B3010008B30100087D480008B30100083F
:1000C000B3010008B3010008B3010008B301000840
:1000D000B3010008E14C0008B3010008ED4C000832
:1000E000D9150008B3010008B3010008DFF80CD0EF
:1000F00000F02CFB00480047B1560008183E0020D5
:10010000224B19680868B0E8F00F80F30988BFF344
:100110006F8F4FF0000080F311884EF00D0E704786
:100120000000000006480068006880F3088862B696
:1001300061B6BFF34F8FBFF36F8F00DF00BF00BF0B
:1001400008ED00E0EFF30980BFF36F8F0F4B1A68E3
:1001500020E9F00F106008B54FF0500080F31188CF
:10016000BFF34F8FBFF36F8F06F064F94FF00000BD
:1001700080F31188BDE8084019680868B0E8F00FFE
:1001800080F30988BFF36F8F704700BF34010020F0
:10019000EFF3058070470000064880470648004797
:1001A000FEE7FEE7FEE7FEE7FEE7FEE7FEE7FEE727
:1001B000FEE7FEE779480008ED000008202A04DB8E
:1001C000203A21FA02F00021704721FA02F3D040D0
:1001D000C2F12002914008431946704740EA0103EA
:1001E0009B0703D009E008C9121F08C0042AFAD2ED
:1001F00003E011F8013B00F8013B521EF9D27047B1
:10020000D2B201E000F8012B491EFBD27047002258
:10021000F6E710B513460A4604461946FFF7F0FF05
:10022000204610BD421C10F8011B0029FBD1801A8A
:10023000704710B5002200E0521C835C8C5CA34226
:1002400001D1002BF8D1D8B2E1B2401A10BD2DE98E
:10025000FE4F804681EA0300C00F0C46009021F05B
:10026000004123F00045B8EB0200A94105D2404609
:10027000214690461C460B46024623F000401043A0
:1002800047D0270DC7F30A00C3F30A510290401A62
:10029000019040286BDAC3F3130040F4801B0098F0
:1002A000924620B10023D2EB030A63EB0B0B0198BB
:1002B0005946C0F14002504600F0B1F906460D46DD
:1002C00050465946019A00F0B9F910EB0800614117
:1002D000002487EA115284EAE7731A4340D0009A57
:1002E00062B3019A012A4FEA075215DC001B61EB49
:1002F00002014FF0004202EA0752CDE90042001C21
:1003000041F5801132462B4600F0B9F903B0BDE843
:10031000F08F40462146F9E7001B61EB0201001C0B
:1003200041F5801300185B412018A2F5001747EB38
:10033000030140EAD570B6196D4111E06D084FEA2E
:10034000360645EAC0754FEA0752001B61EB020111
:10035000001C41F5801149084FEA30000019514155
:1003600032462B4603B0BDE8F04F00F079B9009853
:10037000012240000023D0EB020263EBE0730098FF
:1003800021464FEAE074B8EB000061EB0401E9E7B5
:1003900083F000435BE781F0004158E72DE9FE4F11
:1003A00081EA030404F0004421F0004100944FF07E
:1003B000000B23F0004350EA01045ED052EA03042C
:1003C0005BD0C3F30A54C1F30A552C44A4F2F334AE
:1003D0000194A0FB0254C1F3130141F48011C3F353
:1003E000130343F4801301FB024400FB034E840A11
:1003F000970A44EA815447EA8357A4FB07680295A9
:100400008D0A05FB07854FEA932C04FB0C54270546
:10041000029D4FEA065847EA1637B5EB08056EEB22
:10042000070C870E920E47EA811742EA8312A7FB58
:100430000201B6EB0B0164EB00042B0D43EA0C3315
:100440005E1844EB1C50DA465146E7FB0201C5F347
:1004500013044FEA0B3343EA14534FEA0432019C6E
:1004600043EA0603A4F10C040294009CCDE900B415
:1004700000F005F903B0BDE8F08F00200146F9E770
:100480002DE9F04D81EA030404F0004B21F0004512
:1004900014464FF0000A23F0004150EA050220D034
:1004A00054EA01021DD0C5F30A570246C5F31303EF
:1004B000C1F31300C1F30A5640F4801543F48013CE
:1004C000A7EB0608101BD64608F2FD3873EB0500B3
:1004D00002D308F1010801E092185B41B8F1000F66
:1004E00003DA00200146BDE8F08D00204FF48011B2
:1004F000064684460EE0171B73EB050705D3121B57
:1005000063EB050306434CEA010C49084FEA30004F
:1005100092185B4150EA0107EDD152EA030012D074
:1005200082EA040083EA0501084305D0101BAB41B1
:1005300006D20122002306E000224FF0004302E031
:100540006FF0010253101AEB06004CEB085110EB50
:100550000A0041EB0B01BDE8F04D00F081B800004E
:1005600030B5041E71F1000404DB4FF0004440423A
:1005700064EB0101141E73F1000405DB1C464FF00F
:100580000043524263EB0403994208BF904230BDDE
:1005900030B50B46014600202022012409E021FA53
:1005A00002F59D4205D303FA02F5491B04FA02F550
:1005B0002844151EA2F10102F1DC30BD2DE9F05FE7
:1005C0000546002092469B468846064681464024C2
:1005D0001BE02846414647462246FFF7EFFD5346BB
:1005E0005A46C01A914110D311461846224600F0CF
:1005F00016F82D1A67EB01084F462246012000210C
:1006000000F00DF817EB00094E41201EA4F1010483
:10061000DFDC484631462A464346BDE8F09F202AA3
:1006200004DB203A00FA02F1002070479140C2F149
:10063000200320FA03F3194390407047202A06DB79
:10064000CB17203A41FA02F043EAE07306E041FAA0
:1006500002F3D040C2F1200291400843194670478E
:1006600010B5141E73F1000408DA401C41F10001BA
:1006700092185B411A4301D120F0010010BD2DE911
:10068000F04D92469B4611B1B1FA81F202E0B0FA08
:1006900080F220329046FFF7C2FF04460F4640EA40
:1006A0000A0041EA0B0153465A46084313D011464B
:1006B00053EA010019D0C8F140025046FFF77EFD11
:1006C00005460E46504659464246FFF7A8FF0843E6
:1006D00005D0012004E020463946BDE8F08D002019
:1006E000054346EAE0762C4337430A986305E40A5B
:1006F000A0EB08000022FD0A44EA47540A3002D564
:1007000000200146E9E7010510196941DDE90845C6
:1007100000196941BDE8F04DA2E7C1F30A52C1F3E7
:10072000130140F2FF3341F480119A4202DA0020B3
:100730000146704740F233439A42A2F2334202DC50
:100740005242FFF73BBDFFF76ABF0000064C074D62
:1007500006E0E06840F0010394E807009847103491
:10076000AC42F6D3FFF7C6FC747C0008947C00080A
:1007700070B58C1810F8015B15F0070301D110F863
:10078000013B2A1106D110F8012B03E010F8016B90
:1007900001F8016B5B1EF9D12B0705D40023521E13
:1007A0000DD401F8013BFAE710F8013BCB1A921C7B
:1007B00003E013F8015B01F8015B521EF9D5A14279
:1007C000D8D3002070BD000070B504460068816871
:1007D000C943C90717D1816821F00101816001F087
:1007E0007BFC05460AE000BF01F076FC401B0228B6
:1007F00004D920688068C043C00706D0206880689C
:10080000C043C007F0D0002070BDA06A40F01000C7
:10081000A062E06A40F00100E062012070BD0000CB
:10082000F8B500260446009600688168C943C907E8
:100830002DD0816841F00101816016481649006899
:10084000B0FBF1F000E0401E00900028FBD101F069
:1008500043FC054616E000BF01F03EFC401B0228A9
:1008600010D920688068C043C0070BD0A06A40F050
:100870001000A062E06A40F00100E06284F82460A9
:100880000120F8BD20688068C043C007E4D1002083
:10089000F8BD00003001002040420F0008B5DFF82D
:1008A000ACB2AB4FAB4EAC4D40F6FF79E87A0128C5
:1008B00004D13878022802D001287CD041E181207F
:1008C00000F0B4FC03F09EFAC0EB0021B1FBF9F09C
:1008D000E881C0B200F0AAFC6421E86A06F05EF884
:1008E0000128EBD1E87940B101281DD0022833D08E
:1008F000032876D0042873D023E100F035FADFF81E
:100900005882002408F1A40858F824000096030E29
:10091000C0F30742C0F30721C0B200F047FB641CDC
:10092000E4B2052CF0D3C6E000F01EFADFF828820E
:10093000002408F1B80800BF58F824000096030E00
:10094000C0F30742C0F30721C0B200F02FFB641CC4
:10095000E4B2062CF0D3AEE000F006FADFF8F8813E
:10096000002408F1D00800BF58F824000096030EB8
:10097000C0F30742C0F30721C0B200F017FB641CAC
:10098000E4B2052CF0D31023042222217C20CDF8E0
:1009900000B000F00BFB71480090022304222B21D1
:1009A0005FF0500000F002FB6D48102300901A46E3
:1009B000B5F9161000E089E0B5F9140000F0F6FA78
:1009C000686B009067A306220021642000F0A9FA5A
:1009D00000F000FC00231A461946E86AAFE000E088
:1009E00024E000F0C1F9DFF87081002408F18C08E0
:1009F00058F824000096030EC0F30742C0F3072105
:100A0000C0B200F0D3FA641CE4B2062CF0D3102379
:100A1000042222217C20CDF800B000F0C7FA4F4814
:100A2000022304223E2100901220BBE700F09CF933
:100A3000DFF82481002408F1E40800BF58F82400FE
:100A40000096030EC0F30742C0F30721C0B200F0C6
:100A5000ADFA641CE4B2042CF0D3DFF8FCA0DFF89C
:100A6000FC8000240AF1840A5AF82400CDF80080A2
:100A7000030EC0F30742C0F30721C0B200F096FA9C
:100A8000641CE4B2022CEFD33348009648301023A4
:100A900000781A46192100F089FA2F494C3108785C
:100AA0006E2804D005280DD02A7A6AB101E001220F
:100AB0002A72401E08701023042222217C20CDF8C7
:100AC00000B06FE700222A72401CF3E7812000F09B
:100AD000ADFB03F097F9C0EB0021B1FBF9F0C0B218
:100AE00000F0A4FB6421A86A05F058FF012828D172
:100AF00000F03AF9DFF86080002408F1F40800BF44
:100B000058F824000096030EC0F30742C0F30721F3
:100B1000C0B200F04BFA641CE4B2082CF0D31348C6
:100B2000009010231A46B5F91210B5F9100000F024
:100B30003DFA00F04FFB00231A461946A86A05F05B
:100B400081FD012004F048FFB0E600000D790008A7
:100B50000A000020ED78000810000020E978000865
:100B60009C09002048503A2564000000BC09002080
:100B70001CB57A4D01267A4C01F0AEFA6064B4F9E6
:100B800016102E2909DD216C40F6C412411A91423B
:100B900003D3616B491E61632064606B00B96671A9
:100BA00001F09AFA286064226946206A05F05AFE2C
:100BB00001280BD0E079002873D0012872D00228D8
:100BC00071D0032870D004286FD0C0E06421E06A9F
:100BD00005F0E4FE01287CD16249286808609DF890
:100BE0000000012869D0022802D0032871D15DE0FD
:100BF000E07940B1012810D0022818D0032820D075
:100C0000042828D036E0B4F914006E2832DC544AA7
:100C10000523A17DC0B2A43226E0B4F914006E28E9
:100C200028DC4F4A0623A17DC0B2B8321CE0B4F9DB
:100C300014006E281EDC4A4A0523A17DC0B2D032C2
:100C400012E0B4F914006E2814DC454A0623A17D95
:100C5000C0B28C3208E0B4F914006E280ADC404AB5
:100C6000A17DC0B20423E43202F052FD10B9A08A83
:100C7000401DA082A17D207D02F0F0FC01280CD156
:100C800001F02AFA6064216C40F2DC52411A914270
:100C900003D3616B491E61632064606B00B96671A8
:100CA00017E01DE026E02FE038E041E0B4F9140041
:100CB00000280EDD401FA0820BE0E078142805D844
:100CC000E18A491FE182401DE07002E0E08A801C59
:100CD000E08200231A461946E06A05F0B3FC38E0CA
:100CE000B4F91600302832DA1D4AC1B20523207D3E
:100CF000A43226E0B4F91600302828DA184AC1B226
:100D00000623207DB8321CE0B4F9160030281EDA24
:100D1000134AC1B20523207DD03212E0B4F9160087
:100D2000302814DA0E4AC1B20623207D8C3208E046
:100D3000B4F9160030280ADA094AC1B2207D04232A
:100D4000E43202F03DFC10B9E08A801CE082002011
:100D5000E070012004F040FE0EE7000000000020DB
:100D6000100000200400002010B50021074C0A46A6
:100D7000002004EBC1131A54401CC0B28028FAD3DF
:100D8000491CC9B20829F3D310BD00009C050020FE
:100D9000F0B50B4424E0044685181DE07F2C19D8DB
:100DA000002917DB3F2915DCCE1701EB56764FEAF9
:100DB000E60C0D4F26F0070607EBCC172744A1EBF6
:100DC000060E97F800C0012606FA0EF62CEA060C6D
:100DD00087F800C0641C24B2A542DFDC491C09B2BC
:100DE0008B42D8DCF0BD00009C05002010B500202F
:100DF0004FF47A720021491C9142FCD3401C90426E
:100E0000F8D303F0AFF8012000F0F8F9BDE8104086
:100E1000012000F0FFB970B500240646802525FAB0
:100E200004F0304000D0012000F0F4F9012000F07F
:100E3000E5F9002000F0E2F9641CE4B2082CEED3DE
:100E4000012000F0DBF9BDE87040002000F0D6B9C9
:100E500010B5012000F0DEF9012000F0CFF90020EC
:100E600000F0D8F9BDE81040002000F0C7B910B577
:100E7000002000F0CFF9012000F0C0F9BDE81040DB
:100E8000012000F0C7B910B5FFF7B0FFAE2000F0A9
:100E9000CDF9D52000F0CAF9802000F0C7F9A820CC
:100EA00000F0C4F93F2000F0C1F9D32000F0BEF9F2
:100EB000002000F0BBF9402000F0B8F9A12000F0BC
:100EC000B5F9C82000F0B2F9DA2000F0AFF912202D
:100ED00000F0ACF9812000F0A9F9CF2000F0A6F9CC
:100EE000D92000F0A3F9F12000F0A0F9DB2000F0F8
:100EF0009DF9302000F09AF9A42000F097F9A6207F
:100F000000F094F98D2000F091F9142000F08EF992
:100F1000AF2000F08BF9FFF727FFBDE8104000F08D
:100F200059B90FB470B5C0B014460D46064648AA6C
:100F30006846479903F02CFF23466A462946304607
:100F400000F092F840B070BC5DF814FB10B50C4690
:100F500040F0B00000F06AF9102040EA141000F0F0
:100F600065F904F00F00BDE8104000F05FB9000023
:100F700008B5082B0DD0062B0AD10A4B02EB420212
:100F800003EB4202C03A00920823062200F00EF85A
:100F900008BD054B03EB0212A2F50072102300926C
:100FA0000822F3E76C7500087C6F00082DE9F04F0C
:100FB0001F4616460D4682460024FFF7E9FE7F1EB7
:100FC000F81707EB50700121DFF898B001EBE0074C
:100FD00043E000203DE000BF0AEB00037F2B36D842
:100FE000E91705EB5171CA1021F00701691A002DAC
:100FF00003DA521E083112B209B202EB0409B9F148
:10100000070F0ED8099A04FB06F802440BEBC91E21
:1010100018F802201EF803C08A404CEA020C0EF8B1
:1010200003C009F10102072A11D80BEBC91202EB28
:101030000308099A04FB06FC024498F880301CF867
:101040000220C1F10801CA40134388F88030401CD7
:10105000C0B2B042C0D3641CE4B2A742B9DCBDE860
:10106000F08F00009C0500202DE9FF4F002483B085
:101070009B4690462546A246DFF850919EE010061A
:1010800010D403988DF80420641C2844A4B28DF871
:1010900005A000B25B460499FFF76AFF05EB0B0061
:1010A00085B28BE00620B0EB521F0ED1641CA0B2BB
:1010B0008DF8042018F80010002974D08DF8051060
:1010C000401C84B28DF806A03CE00E20B0EB121F4D
:1010D00016D1641CA0B28DF8042018F80010002965
:1010E00071D0401C80B28DF8051018F8001000294E
:1010F00069D08DF80610401C84B28DF807A021E05D
:101100001E20B0EBD20F1FD1641CA0B28DF80420BA
:1011100018F80010002956D0401C80B28DF8051038
:1011200018F8001000294ED0401C80B28DF806102F
:1011300018F80010002946D0401C8DF8071084B222
:101140008DF808A0002609E0641CA4B236E03846F9
:1011500001A9FFF76EF868B1761CB6B206EB8600FF
:1011600000EB461101EB0900074619A1FFF761F8F2
:101170000028ECD1BBF1080F03D0BBF1060F1DD145
:1011800012E006EB860000EB461101EB0900401D62
:10119000009003981023284400B21A460499FFF7E0
:1011A00005FF103509E00EE003980623284400B23D
:1011B0003F220499FFF7DCFEAD1DADB218F8042004
:1011C000002A7FF45CAF07B0BDE8F08FA677000877
:1011D0000000000070B5084D002400212046FFF7F4
:1011E000B5FE05EBC410802100F031F8641CE4B2B8
:1011F000082CF2D370BD00009C05002008B101222C
:1012000000E000224FF40071014800F060BF0000D0
:10121000000C014008B1012200E000224FF480716F
:10122000014800F054BF0000000C014010B5044616
:10123000FFF70EFE7820FFF7EEFD0020FFF7EBFD35
:101240002046FFF7E8FDBDE81040FFF710BE70B57F
:101250000D460646FFF7FCFD7820FFF7DCFD402039
:10126000FFF7D9FD002404E0305DFFF7D4FD641CD6
:10127000E4B2AC42F8D3BDE87040FFF7F8BDFEE73A
:101280000D4A10B50B4B116888B14FF47A74604366
:10129000B3FBF0F0401EB0F5803F01D34FF6FF7076
:1012A0008862116840F2E730C862D06010BD00204B
:1012B000086410BD00A24A04600C002070470000C2
:1012C00008B5BD4FDFF8F4B2BD4D40F6FF7900BF61
:1012D00003F0CAF9E87A012804D13878022802D04C
:1012E00001287CD064E1812003F0E6F902F08AFD58
:1012F000C0EB0021B1FBF9F0E881C0B203F0DCF9EA
:101300006421A86A05F04AFB0128EBD1E87940B1D5
:1013100001281FD0022835D0032868D004287DD0AA
:1013200046E102F06BFFDFF89882002408F1A40880
:101330004FEA0B0658F824000096030EC0F307424C
:10134000C0F30721C0B203F07BF8641CE4B2052CA3
:10135000F0D3B8E002F052FFDFF86482002408F115
:10136000B8085E4658F824000096030EC0F3074202
:10137000C0F30721C0B203F063F8641CE4B2062C8A
:10138000F0D3A0E002F03AFFDFF83482002408F145
:10139000D0085E4658F824000096030EC0F30742BA
:1013A000C0F30721C0B203F04BF8641CE4B2052C73
:1013B000F0D3844800901023042222217C2003F0E3
:1013C0003FF881480090022304222B215FF0500057
:1013D00003F036F87D4810231A46009000E07DE0C7
:1013E000B5F91210B5F9100003F02AF8D0E002F0B8
:1013F00005FFDFF8CC81002408F18C084FEA0B06CA
:1014000058F824000096030EC0F30742C0F30721EA
:10141000C0B203F015F8641CE4B200E010E0062C42
:10142000EED3684800901023042222217C2003F090
:1014300007F86548022304223E2100901220C7E7E6
:1014400002F0DCFEDFF87881002408F1E4085E4653
:1014500058F824000096030EC0F30742C0F307219A
:10146000C0B202F0EDFF641CE4B2042CF0D3DFF84C
:1014700050A1DFF8548100240AF1840A5AF82400AC
:10148000CDF80080030EC0F30742C0F30721C0B2BD
:1014900002F0D6FF641CE4B2022CEFD3484C009655
:1014A0004834102320781A46192102F0C9FF207809
:1014B0006E2804D005280DD0697A69B101E00121B8
:1014C0006972401E20703F481023042222210090A0
:1014D0007C207DE700216972401CF3E7812003F046
:1014E000EBF802F08FFCC0EB0021B1FBF9F0C0B2C9
:1014F00003F0E2F86421A86A05F050FA012857D1F8
:1015000002F07CFE2E4E002416F1F40656F824104C
:10151000C8B2802809D90B0EC1F30742C1F30721D5
:101520008038CDF800B002F08BFF641CE4B2082CC8
:10153000ECD3234CCDF800B05034102320781A4659
:10154000322102F07DFF20786E2804D005281BD0C0
:10155000697AD9B101E001216972401E20701948F1
:1015600000901023042222217C2002F069FFB5F9AB
:10157000100080280CDD10231449009180381A4691
:10158000B5F9121000B22FE700216972401CE5E79F
:10159000286B00900EA306220021642002F00BFFAE
:1015A00003F062F800231A461946A86A05F04AF8C3
:1015B000012004F011FA8BE60A000020ED78000803
:1015C000100000200D790008E9780008BC0900200F
:1015D00048503A25640000004FF4805000F076BC7B
:1015E00003480168486A002200B24A62704700005E
:1015F000A80C002072B6FEE706490020C861064824
:10160000016941F004010161016941F0400101619A
:1016100070470000100E002000200240064A002102
:10162000D16106490A6942F002020A61486108690B
:1016300040F0400008617047100E0020002002407A
:10164000044B0022DA61044A136943F00103136179
:1016500001807047100E0020002002401448002234
:10166000C168CB06134904D5CA6942F00202CA61B7
:101670001022C3685B0705D5CB6943F00103CB613A
:1016800042F00402C369DB0707D0CB6943F00403CF
:10169000CB61C16921F00101C161A2F580710139FD
:1016A00001D0C2607047C16921F00101C16170477A
:1016B00000200240100E002070B5054600F00CFD21
:1016C0000646114C09E0681C07D025B100F004FD66
:1016D000801BA84201D9032070BDE068C007F2D189
:1016E000E068800601D52020E060E068C00605D4EF
:1016F000E069C00702D1E068400703D5FFF7AEFFFD
:10170000012070BD002070BD00200240DFF8B490C1
:101710002D4D2E4E42F2107709F1040A4FF00008C9
:10172000A9F160044FF0010B28683168401AB842F3
:1017300009D984F80B8002F061FD02F095FFFFF7F4
:1017400013FBFFF747FDE07AC0BB04221D49204888
:1017500001F05AFE99F800104846202909D1417835
:10176000012906D18178012903D199F80300612864
:1017700002D0E07A38B121E084F80BB028683060FC
:10178000C4F860801AE00F490422091D114801F0D5
:101790003BFE9AF80010504620290FD141780229CB
:1017A0000CD18178012909D19AF80300612805D16B
:1017B00084F80BB028683060C4F86480012004F01D
:1017C0000BF9B1E7700000200000002004000020A9
:1017D000800D0020F00C0020F8B50024009490F853
:1017E00024202546012A12D0012280F824204A68AC
:1017F0001F23072A0DD20668776B521E02EB820266
:1018000093409F430B6893401F43776319E0022086
:10181000F8BD06680D2A0AD2376BD21F02EB82028E
:1018200093409F430B6893401F43376309E0F76A77
:101830000D3A02EB820293409F430B6893401F4393
:10184000F7620A68072306680A2A0AD3F7680A3A81
:1018500002EB420293409F438B6893401F43F76023
:1018600008E0376902EB420293409F438B68934044
:101870001F4337610A68102A01D0112A20D1124B68
:1018800002689A4217D193681B0219D4936843F4F3
:10189000000393600968102912D10C490C4A0968A9
:1018A000B1FBF2F101EB8101490000E0491E00911A
:1018B0000029FBD104E0816A41F02001816201240A
:1018C00080F824502046F8BD00240140300100205B
:1018D00040420F00806A70470068C06C704700008B
:1018E0002DE9F0414FF0000704003D467ED0A06A8C
:1018F000002628B9E66284F82460204600F07EF8CD
:101900002046FEF761FFA16AC90600D420B1A06A93
:1019100040F01000A06269E0A16A21F4885141F012
:101920000201A1626268E169237B0A4347EA43013D
:101930000A43A1684FF48077B94209D0012907D042
:101940005FF0000194F814C0BCF1010F02D00AE06E
:101950003946F7E7F3B1A36A43F02003A362E36AD1
:1019600043F00103E3622368D3F804C02CF4694C0C
:101970004CEA010CC3F804C021688B68DFF870C022
:1019800003EA0C0313438B60A168B9420BD0012911
:1019900009D00CE0DFF85CC0A3690CEB43330B43C8
:1019A00043F40061DFE7218A0D05A5F58015216864
:1019B000CB6A23F470032B43CB62216889680E4BFA
:1019C0001940914208D1E662A16A21F0020141F07A
:1019D0000101A162BDE8F081A06A20F0020040F0A0
:1019E0001000A062E06A40F00100E0620120F1E72F
:1019F000FDF7E1FF00E0FFFFFE0E1FFF00B585B021
:101A00000021009101910291039100680E498842E2
:101A100018D10E48816941F400718161816901F436
:101A200000710491816941F0040181618069694616
:101A300000F004000490012000900320019004486D
:101A400000F050FA05B000BD002401400010024033
:101A5000000801402DE9F84300270D460446009791
:101A600000F03AFB804620688168C90508D5A06A65
:101A700040F02000A06284F824700120BDE8F883C3
:101A80004168C90503D4C06A10F4700F2AD002203F
:101A900000F014FC3B490968B1FBF0F620680369CB
:101AA00039490B424FEA61014FEAA1121FD1C368C5
:101AB0004FEA611C13EA0C0F19D103690B4225D1BF
:101AC000C068104222D1142023E0681C0AD02DB136
:101AD00000F002FBA0EB0800A84203D920680068D0
:101AE000800725D5206800688007EED52DE00369C2
:101AF0000B4202D1C168114206D0026923490A4251
:101B000006D1C068084203D1542002E0292000E039
:101B1000FC204643009816E0681C11D02DB100F05F
:101B2000DBFAA0EB0800A8420AD90098B04207D21D
:101B3000A06A40F00400A06284F8247003209DE7AE
:101B40000098401C0090B042E6D321686FF012006C
:101B50000860A06A40F40070A06220688068C0F34A
:101B6000424007280CD1207B50B9A06A20F4807035
:101B7000A062A06AC00403D4A06A40F00100A06281
:101B800000207BE730010020244992244992240060
:101B900070B5044690F8240001280DD0012084F887
:101BA00024002046FEF73CFE02004FF0000005D066
:101BB00084F82400104670BD022070BDA16A40F276
:101BC0000123994341F48071A1621F4D23681F498D
:101BD000AB4218D10E6816F4702F14D0A66A46F4E2
:101BE0008016A6620E68760505D5A66A26F400560C
:101BF00046F48056A662A66AF6040AD5E66A26F07E
:101C00000606E66206E0A66A26F48016A6625E680C
:101C1000E9E7E06284F824006FF0020018602068B1
:101C20008368C3F34243072B05D1A84208D1096852
:101C300011F4702F04D0816841F480118160B9E7FC
:101C4000816841F4A001F9E7002801400424014023
:101C500010B590F821100022022905D004218163DB
:101C600080F82020012010BD01680B6823F00E03CE
:101C70000B6001680B6823F001030B6090F84030A3
:101C8000C46B012101FA03F3636080F8211080F82E
:101C90002020104610BD000010B590F8211000243F
:101CA000022903D00421816301243DE001680A6810
:101CB00022F00E020A6001680A6822F001020A603E
:101CC0001A4A0168914201D1012121E0174A1432D8
:101CD000914201D110211BE0144A2832914201D1D6
:101CE000891515E0114A3C32914201D189140FE067
:101CF0000E4A5032914202D14FF4803108E00B4A33
:101D00006432914202D14FF4801101E04FF08071B2
:101D1000064A083A5160012180F82110002180F81C
:101D20002010416B01B18847204610BD08000240D9
:101D300070B5044600F0D0F90546601C02D0044896
:101D40000078044400F0C8F9401BA042FAD370BDEB
:101D5000240100202DE9F047054626480F460126BC
:101D6000017E01290FD00121814601762868DFF824
:101D700088804CF25034022808D0A2462046FFF753
:101D80009BFCA8B131E00220BDE8F0872046FFF7B8
:101D900093FC08BB0120FFF72FFC2046FFF78CFCCB
:101DA000D8F81010064621F00401C8F810101CE005
:101DB0004FF0FF303860AC6811E02046FFF72EFC92
:101DC0005046FFF779FCD8F81010060021F0020108
:101DD000C8F8101001D03C6007E004F58064D5E934
:101DE000020100EB8120A042E7D8002189F81810F9
:101DF0003046C9E7100E0020002002400348016968
:101E000041F0800101610020704700000020024085
:101E10002DE9F05F07461C4888460024017E1546E0
:101E20001E46012909D00121814601764CF2503A23
:101E30005046FFF741FC18B122E00220BDE8F09FB8
:101E4000012F02D0022F00D00427D346DFF83CA098
:101E5000220128463146FEF7B1F981B208EB440071
:101E6000FFF7EEFB5846FFF727FCDAF8102022F0C8
:101E70000102CAF8102018B9641CE4B2BC42E7D3CE
:101E8000002289F81820D9E7100E00200020024017
:101E9000064900200A69120607D5054A4A60054A24
:101EA0004A600969090600D50120704700200240F8
:101EB00023016745AB89EFCDB0F5805F02D10249C0
:101EC000002008707047000010000020044910B581
:101ED0000A68024202D00860FFF7EEFF10BD000062
:101EE000140401402DE9F84FDFF8B8910024A9F15E
:101EF000040B23460F2709F1040AABF1040EC9E0D5
:101F00000125A5402A40AA427DD1674ED1F804C0E0
:101F1000ACEB0608B44532D014DCBCF1030F3AD068
:101F200009DCBCF1000F2AD0BCF1010F1CD0BCF1C0
:101F3000020F31D11DE0BCF1110F17D0BCF1120F0F
:101F40002AD119E0B8F5881F19D006DCB8F5803F12
:101F500015D0B8F5801F1FD111E0B8F5001F0ED0C5
:101F6000B8F5041F18D10AE0CB6815E0CB681B1D3B
:101F700012E0CB6808330FE0CB680C330CE08B68C1
:101F80002BB1012B4FF0080303D0456104E004237B
:101F900002E0056100E00023FF2A01D8064601E0C7
:101FA00000F104064FEA840501D9A5F12005D6F811
:101FB000008007FA05FC28EA0C0803FA05F548EA50
:101FC0000508C6F800804D68ED0062D5374DAE6952
:101FD00046F00106AE61AD6924F0030605F0010587
:101FE0000095334D06EB050CDCF80850A607360FBC
:101FF00007FA06F825EA0805DFF8B880404503D15E
:102000004FF0000817E044E0DFF8AC80404502D113
:102010004FF001080FE0DFF8A480404502D14FF0F7
:10202000020808E0DFF89880404502D14FF003082D
:1020300001E04FF0040808FA06F848EA0508CCF871
:1020400008804D68D9F80060ED024D4601D5164371
:1020500000E096432E604D68DAF80060AD02554608
:1020600001D5164300E096432E604D68DBF8006012
:10207000AD035D4601D5164300E096432E604D68E2
:10208000DEF80060ED03754601D5164300E0964387
:102090002E60641C0D682A46E5407FF431AFBDE830
:1020A000F88F0000080401400000111000100240E9
:1020B0000000014000080140000C014000100140F8
:1020C000001401408068084000D0012070470AB128
:1020D000016170470904FBE7014880687047000010
:1020E0002401002002488168027811448160704711
:1020F00024010020074810B5016841F0100101607B
:10210000032000F0A7F80F2000F006F800F050F8C8
:10211000002010BD0020024030B505461F4887B0A2
:10212000C16941F00401C161C06906A900F0040061
:10213000009001A800F020FA0498B0B100F03CFA39
:1021400040001749174AB0FBF1F11748491E0260D9
:10215000416040F2E7320021C0E9032181608161E2
:1021600000F074FC040003D015E000F025FAE8E765
:102170000D4800F099FC04000DD11E2000F03CF841
:10218000102D07D2002229461E2000F043F80748F0
:10219000056000E0012407B0204630BD0010024079
:1021A00040420F0000080040C80D00202801002018
:1021B0000F4808B5816941F001018161816901F031
:1021C00001010091C16941F08051C161C0690022E3
:1021D00000F0805000900F21901E00F01BF8054881
:1021E000416821F0E06141F00071416008BD0000EC
:1021F0000010024000000140002809DB00F01F022F
:10220000012191404009800000F1E020C0F8001158
:1022100070470000F0B40E4B1B680C46C3F302235A
:10222000C3F10705042D00D90425191D072901D282
:10223000002300E0DB1E012606FA05F1491E2140BD
:1022400099409E40761E16403143F0BC02F0B2BD6C
:102250000CED00E0064900F0070208684FF6FF03A6
:10226000184040EA0220034A10430860704700000B
:102270000CED00E00000FA050E4A10B5136823F0DB
:1022800002031360136823F00103034313600A4C35
:10229000206840F004002060012909D040BF02F00E
:1022A00034FA02F032FA206820F00400206010BDF9
:1022B00030BFF8E70070004010ED00E010B50146B7
:1022C0000020234C012922D0022939D010291DD108
:1022D00061682268D20119D51E48C1F38342C9033F
:1022E000805C0AD561681B4AC1F34041921E515C73
:1022F000194AB2FBF1F1484301E0184948436168CB
:10230000490203D440000321B0FBF1F010BD226A62
:10231000C2F30121012903D1920701D5C80310BDE1
:10232000022905D1626A920702D549F6404010BDE4
:102330000329FCD121688903F9D54FF2244010BD4F
:1023400000F04AF96168C1F38131491C4900DBE7BB
:1023500000100240F079000800127A0000093D00E8
:102360002DE9F84305460078354CC00754D0E069A4
:102370000026C00008D4E06940F08050E061E069C8
:10238000012600F0805000902E480168C90512D443
:102390000168804641F480710160FFF79DFE0746A9
:1023A00005E000BFFFF798FEC01B642823D8D8F8CB
:1023B0000000C005F6D5206A10F4407021D0A9882D
:1023C00001F4407181421CD0206A1F49012220F48F
:1023D00040700A6000220A602062C00711D0FFF737
:1023E0007BFE074641F2883808E000BFFFF774FE25
:1023F000C11B414502D90320BDE8F883206A80074C
:10240000F4D5206A696820F44070084320621EB148
:10241000E06920F08050E0612878800705D5606889
:10242000A96820F44040084360602878C00605D5BC
:102430006068E96820F48000084360600020DBE702
:102440000010024000700040400442422DE9F04775
:102450000F46050061D0434E306800F00700B842D7
:1024600009D2306820F0070038433060306800F04F
:102470000700B84251D128683B4C810712D540076C
:1024800003D5606840F4E06060602878000703D5F9
:10249000606840F4605060606068A96820F0F000F7
:1024A000084360602878C00728D06868012810D0E9
:1024B0002168022810D0890700292EDA616821F0EE
:1024C000030101436160FFF707FE804641F288394E
:1024D0000DE021688903EFE78901EDE7FFF7FCFDD7
:1024E000A0EB0801494502D90320BDE8F0876068E8
:1024F000696800F00C00B0EB810FEFD1306800F09C
:102500000700B8420BD9306820F00700384330602C
:10251000306800F00700B84201D00120E5E72878D4
:10252000400705D56068E96820F4E0600843606012
:102530002878000706D56068296920F4605040EAD1
:10254000C100606000F058F86168084AC1F30311E7
:10255000515CC8400649086006480068FFF7DCFD8A
:102560000020C2E70020024000100240007A00086C
:1025700030010020280100200F2202600C4A53681D
:1025800003F003034360536803F0F0038360536870
:1025900003F4E063C36052684FF4E06303EAD202DD
:1025A00002610448006800F00700086070470000FE
:1025B00000100240002002400448054900684968B4
:1025C000044AC1F30221515CC84070473001002029
:1025D00000100240107A0008044805490068496864
:1025E000044AC1F3C221515CC84070473001002049
:1025F00000100240107A00080E4A51680E4801F09F
:102600000C03042B11D0082B0FD10C48C1F38343CA
:10261000C903C05C0AD55168084AC1F34041921E03
:10262000515C054A5043B0FBF1F070470449484300
:10263000704700000010024000127A00DE790008A6
:1026400000093D002DE9F84F040070D02078C04DFE
:10265000C00749D06868C0F38100012807D06868C6
:10266000C0F38100022809D16868C00306D5286834
:10267000800339D560680028E7D035E06068B0F5A0
:10268000803F0BD010B1B0F5A02F11D0286820F4F6
:1026900080302860286820F4802002E0286840F418
:1026A00080302860606890B1FFF716FD06460AE0AA
:1026B000286840F480202860F0E700BFFFF70CFD99
:1026C000801B642873D828688003F7D50CE0FFF7D7
:1026D00003FD064605E000BFFFF7FEFC801B6428F3
:1026E000F0D828688003F7D420789A4E80074FF0FE
:1026F00001094FF0000839D5686810F00C0F07D0B9
:102700006868C0F38100022809D16868C00306D454
:102710002868800714D52069012808D110E02069B5
:10272000B0B1C6F80090FFF7D7FC074605E00AE114
:10273000FFF7D2FCC01B0228C4D828688007F7D551
:102740002868616920F0F80040EAC10028600DE0C7
:10275000C6F80080FFF7C0FC074604E0FFF7BCFCAA
:10276000C01B022823D828688007F7D420780007E8
:102770002CD57948A169D9B1C0F80090FFF7ACFC1D
:10278000074604E0FFF7A8FCC01B02280FD8686AC0
:102790008007F7D571484FF4FA510068B0FBF1F0AB
:1027A000009000BF0098411E0091FAD20EE080E038
:1027B000C0F80080FFF790FC074604E0FFF78CFCB0
:1027C000C01B022875D8686A8007F7D420784007B4
:1027D00060D5E8690027C00008D4E86940F080505F
:1027E000E861E869012700F0805000905C480168CA
:1027F000C90513D40168834641F480710160FFF775
:102800006BFC824606E000BFFFF766FCA0EB0A0007
:1028100064284ED8DBF80000C005F5D5E068012833
:102820000AD008B1052813D0286A20F001002862D8
:10283000286A20F0040002E0286A40F001002862C3
:10284000E06841F2883B98B1FFF746FC82460BE016
:10285000286A40F004002862EEE700BFFFF73CFC66
:10286000A0EB0A0159455AD8286A8007F6D50CE032
:10287000FFF732FC824605E0FFF72EFCA0EB0A01D1
:1028800059454CD8286A8007F6D41FB1E86920F072
:102890008050E861E06988B36968C1F38101022969
:1028A00044D00228C6F8608004D0FFF715FC044627
:1028B00038E034E0FFF710FC074604E0FFF70CFCBB
:1028C000C01B02282BD828688001F7D4206AB0F5F5
:1028D000803F05D16868A16820F400300843686033
:1028E000D4E908010843696821F474110843686059
:1028F000C6F86090FFF7F0FB044606E025E000BF55
:10290000FFF7EAFB001B022809D828688001F7D5E9
:102910001BE000BFFFF7E0FB001B022802D90320E9
:10292000BDE8F88F28688001F4D40EE00128F7D0C4
:102930006868226A00F48031914204D1616A00F42F
:102940007010884201D00120EAE70020E8E700008B
:102950000010024000004242800442423001002048
:102960000070004003480068C16841F00101C16087
:1029700070470000C80D002003480068C16821F0BE
:102980000101C16070470000C80D0020704770470A
:1029900010B590F83C20012A22D0012280F83C207A
:1029A000CA688C6822F4407222434C6822F4806228
:1029B00022430C6822F4006222430C6922F4805204
:1029C00022434C6922F400522243C969002322F4B5
:1029D00080420A4301684A6480F83C30002010BD00
:1029E000022010BD70B590F83C20012A26D00124A9
:1029F00080F83C40022280F83D2003685A689D68B8
:102A000022F070060A6832435A600D4B02689A42FF
:102A100008D0B2F1804F05D00A4B9A4202D00A4B3F
:102A20009A4204D1496825F080031943916080F8E7
:102A30003D40002180F83C10084670BD022070BD6A
:102A4000002C0140000400400008004010B50400C4
:102A500003D094F83D0010B107E0012010BD002024
:102A600084F83C00204600F01EF8022084F83D0067
:102A7000211D206801F008FF012084F8460084F839
:102A80003E0084F83F0084F8400084F8410084F858
:102A9000420084F8430084F8440084F8450084F838
:102AA0003D00002010BD704790F83D10012901D075
:102AB00001207047022180F83D100168CA6842F089
:102AC0000102CA6000680B49884208D0B0F1804F0B
:102AD00005D00949884202D00849884204D181685A
:102AE00001F00701062903D0016841F001010160EE
:102AF00000207047002C0140000400400008004006
:102B00002DE9F0410D46040003D094F83D0018B1C2
:102B100008E00120BDE8F081002084F83C00204658
:102B200000F040F8022084F83D002068816844F2FB
:102B3000070291438160211D206801F0A5FE2268F3
:102B400090689169166A2B68AF69034340F20330BD
:102B5000814341EA0721A868EF6908434FF6FC4129
:102B60008843E96840EA0720014328692F6A000189
:102B700040EA0730084369686D6926F0220646EA94
:102B80000515294393602268906154F8460B016251
:102B9000012004F81F09E0752076E0762077A07503
:102BA0000020B7E700B585B00021009101910291A6
:102BB000039100680D49884216D10D48C16941F062
:102BC0000201C161C16901F002010491816941F012
:102BD000040181618069694600F004000490C0200E
:102BE00000900448FFF77EF905B000BD00040040E6
:102BF000001002400008014070B590F83E600446A5
:102C000090F83F5090F8423090F84320022021B1D4
:102C100004290ED0012E1BD114E0012E18D1012B56
:102C200016D184F83E0084F8420001220021206879
:102C300020E0012D0CD1012A0AD184F83F0084F84C
:102C4000430014E0012D03D1012B01D1012A01D051
:102C5000012070BD84F83E0084F83F0084F84200F3
:102C600084F8430001220021206801F049FE01227E
:102C70000421206801F044FE2068016841F0010150
:102C80000160002070BD70472DE9F04104460068E6
:102C9000C66805694FF00007A90713D5B10711D51C
:102CA000F91E016101202077206880698007204695
:102CB00002D0FFF7E8FF04E000F0A4F8204600F09F
:102CC00049F92777680716D5700714D521686FF082
:102CD00004000861022020772068806910F4407F9A
:102CE000204602D0FFF7CFFF04E000F08BF820462B
:102CF00000F030F92777280715D5300713D521685C
:102D00006FF008000861042020772068C069800700
:102D1000204602D0FFF7B7FF04E000F073F820462A
:102D200000F018F92777E80616D5F00614D52168C3
:102D30006FF010000861082020772068C06910F447
:102D4000407F204602D0FFF79EFF04E000F05AF8D3
:102D5000204600F0FFF82777E80708D0F00706D0F4
:102D600021686FF001000861204600F043F9280651
:102D700008D5300606D521686FF08000086120462E
:102D8000FFF704FE680608D5700606D521686FF0C7
:102D900040000861204600F037F9A8060AD5B006C1
:102DA00008D521686FF0200008612046BDE8F04199
:102DB000FFF7EDBDBDE8F08100B585B000210091C1
:102DC00001910291039100680B49884212D10B488E
:102DD000816941F0040181618069694600F0040065
:102DE00004904FF40060009002200190039004488A
:102DF000FFF778F805B000BD002C0140001002403C
:102E000000080140704770B5044690F83C00002669
:102E10000D4601280FD0012084F83C006AB1042A35
:102E20001DD0082A2FD00C2A3FD00126002084F87C
:102E30003C00304670BD022070BD206801F06EFD80
:102E40002068816941F0080181612068816921F071
:102E500004018161206881692A69114311E02068B9
:102E600001F084FD2068816941F40061816120687E
:102E7000816921F480618161206881692A6941EA60
:102E800002218161D2E7206801F09CFD2068C169C0
:102E900041F00801C1612068C16921F00401C161EC
:102EA0002068C1692A69114311E0206801F0B6FD6C
:102EB0002068C16941F40061C1612068C16921F4E1
:102EC0008061C1612068C1692A6941EA0221C1614A
:102ED000ACE710B5040003D094F83D0010B107E052
:102EE000012010BD002084F83C00204600F01EF8B0
:102EF000022084F83D00211D206801F0C5FC01205E
:102F000084F8460084F83E0084F83F0084F84000CE
:102F100084F8410084F8420084F8430084F84400B7
:102F200084F8450084F83D00002010BD08B5006815
:102F30000649884208D10648816941F400618161EF
:102F4000806900F40060009008BD0000002C014082
:102F5000001002407047000010B50446022249B13B
:102F600004290ED0082913D094F84100012816D066
:102F7000012010BD94F83E000128F9D184F83E20CC
:102F80000FE094F83F000128F2D184F83F2008E0D8
:102F900094F840000128EBD184F8402001E084F847
:102FA00041200122206801F0ABFC0F4920688842D3
:102FB00003D1426C42F4004242642068884208D047
:102FC000B0F1804F05D00949884202D008498842B3
:102FD00004D1816801F00701062903D0016841F09E
:102FE00001010160002010BD002C014000040040E0
:102FF0000008004000680349884201D1FFF772B819
:10300000704700000008004070477047704700009C
:10301000F8B5016804460868CA684B6910F00F0FDC
:103020004FF0000559D003F0010602F490773743C2
:1030300065D0C10705D0D10503D5616C41F0010110
:103040006164410705D5D90703D0616C41F00201E5
:103050006164810705D5D90703D0616C41F0040193
:103060006164010707D502F02001314303D0616C90
:1030700041F008016164616C00293AD0800604D5F2
:10308000900602D5204601F01AFD20684069616C67
:10309000C0F38010090700D460B3204601F0E8FCBB
:1030A00020684069400621D52068143050E8001F90
:1030B00021F0400140E80012002AF5D1E06BA8B1F0
:1030C0006D494163E06BFEF7E7FD002811D0E06B2E
:1030D000416B01B0BDE8F040084783060FD5930669
:1030E0000DD52046BDE8F84001F0E9BC2046FFF7C9
:1030F0008DFFF8BD2046FFF789FF6564F8BD266B9C
:103100002023012E7CD1C6067AD5D60678D508684C
:103110004868009048694FF00206400640D5E16BD0
:10312000086840680004000CE8D0A28D8242E5D90E
:10313000E085886920282DD020680C3050E8001FD9
:1031400021F4807140E80012002AF5D12068143083
:1031500050E8001F21F0010140E80012002AF5D1DB
:103160002068143050E8001F21F0400140E80012B0
:10317000002AF5D184F84230256320680C3050E8ED
:10318000001F21F0100140E80012002AF5D1E06B89
:10319000FEF75EFD6663A08DE18D401A81B22AE0E4
:1031A000A08DE18D401A81B2E08D0028A6D00029C3
:1031B000A4D022680C3252E8000F20F4907042E84C
:1031C0000007002FF5D12068143050E8002F22F0BE
:1031D000010240E80027002FF5D184F84230256332
:1031E00020680C3050E8002F22F0100240E8002345
:1031F000002BF5D166632046FFF707FFF8BDFFE718
:1032000005062BD5150629D594F841002128F5D1BE
:10321000A068B0F5805F01D12069B0B1206A411C7F
:103220002162216800784860E08C401E0004000C98
:10323000E084E3D12068C16821F08001C16020688A
:10324000C16841F04001C160D8E7206A0088C0F33E
:1032500008004860206A801C2062E5E74006CDD562
:103260005006CBD5CA68204622F04002CA6084F8D6
:10327000413000F0A3F9C1E7614A000870B50400CD
:1032800004D094F84100002510B106E0012070BD83
:1032900084F84050204600F023F8242084F84100B0
:1032A0002068C16821F40051C160204601F068FC2B
:1032B0002068016921F4904101612068416921F091
:1032C0002A0141612068C16841F40051C160656410
:1032D000202084F8410084F842006563002070BD1E
:1032E000F0B585B00024009401940294039403681F
:1032F0003F4F02203F4903223F4D4602BB4225D1AA
:103300008B6943F480438B618B6903F4804304939E
:103310008B6943F004038B618969039201F0040116
:1033200004910102CDE9001069462846FEF7DAFD56
:10333000CDE90064694628460294FEF7D3FD0022D9
:1033400005212520FEF766FF25204DE02B4FBB42CF
:1033500021D1CB6943F40033CB61CB6903F4003353
:1033600004938B6943F004038B618969039201F034
:10337000040104910421CDE9001069462846FEF7B6
:10338000B1FD0820CDE90004694628460294FEF705
:10339000A9FD05B0F0BD1A4DAB42FAD1CB6943F49B
:1033A0008023CB61CB6903F4802304938B6943F0C2
:1033B00008038B618969134D01F00801CDE90321F0
:1033C000CDE9006069462846FEF78CFDE814CDE99A
:1033D0000004694628460294FEF784FD0022052178
:1033E0002720FEF717FF2720FEF706FFD1E7000092
:1033F0000038014000100240000801400044004035
:1034000000480040000C014090F84230202B01D0D1
:103410000220704721B11AB10023036301F00CBCF4
:10342000012070473EB50021009100683349344DBA
:103430004FF0805488422ED132480178202920D183
:10344000417801291DD182782F482E49042A00682D
:10345000C97804D0062A06D0052A08D011E06129CF
:103460000FD1032106E061290BD1022102E061297D
:1034700007D101218DF8041000236A4601A903F049
:1034800091F904221F49214831E02C60BFF34F8F8E
:10349000BFF36F8F3EBD1E498842FBD11D480178A6
:1034A000202920D1417802291DD182781A48194952
:1034B000042A0068C97804D0062A06D0052A08D054
:1034C00011E061290FD1042106E061290BD105210A
:1034D00002E0612907D106218DF8041000236A4615
:1034E00001A903F05FF9094804220A499038FFF75F
:1034F0008BFF00980028C8D13EBD00000048004066
:1035000004ED00E07000002030000020800D00205D
:103510000038014074000020340000202DE9F843F9
:10352000044690F84100984616460D46202802D0E1
:103530000220BDE8F88385B17EB1002060642120BF
:1035400084F84100FEF7C8FDA6848146E684A068A1
:103550002027B0F5805F02D003E00120E9E7206971
:1035600010B12E4600250EE000260CE080212046FA
:1035700001F07DFBA8B9C6B116F8010B21684860BF
:10358000E08C401EE084E08C4B464FF00002CDF80A
:1035900000800028EAD14FF04001204601F067FB8F
:1035A00040B184F841700320C3E735F8020BC0F343
:1035B0000800E3E784F841700020BAE77047FEE7AF
:1035C000F0B50931441C244F0830C6B27878C9B22E
:1035D000E5B290B907F1500044788C420DD3641ED7
:1035E0008C420ADC0478A6F1800C644505DA807808
:1035F0000444A5F18000844226DCF87904280ED129
:103600001548483044788C4209D3641E8C4206DC4D
:103610000478B44203D280782044A84214D8002011
:1036200016E000BF02EB80042468C4F307278F4232
:103630000CD37F1E8F4209DCE7B2B74206D2C4F337
:1036400007443C44AC4201D90120F0BD401CC0B24B
:103650009842E7D30020F0BD10000020F0B501F142
:103660000902D3B200F11002D4B2284AD2799AB337
:10367000012A49D0022A04D0032A18D0042A2CD0C7
:1036800042E0224E00221C3656F82250C5F307278E
:10369000FF1E9F4206DD192904D9EDB2A54201D2D1
:1036A00085422BD8521C12F0FF02EDD02CE0174EB1
:1036B0000022183656F82250C5F30727FF1E9F42F6
:1036C00006DD2A2904D9EDB2A54201D2854215D8DA
:1036D000521C12F0FF02EDD016E00C4E0022843690
:1036E00056F82250C5F30727FF1E9F4208DD212907
:1036F00006D9EDB2A54203D2854201D90120F0BD21
:10370000521CD2B2022AEBD30020F0BD10000020E0
:10371000F0B501F11007002400F1100C491C14E071
:1037200002EB84052E68C6F3072505F1080E8E45C9
:1037300009D90A35BD4206D8F5B2654503D285429E
:1037400001D90120F0BD641CE4B29C42E8D3002002
:10375000F0BD00001CB50027DFF8F892BC4EDFF882
:10376000F8A23D464FF0030BB846A9F15C0430784F
:10377000012834D1B4F910000E30FC2817DDB4F95B
:103780001200222813DD00F039FDFDF7EDFAB3A396
:1037900006221421322000F00EFEB0A306221421CE
:1037A0003220FDF7BEFB00F05FFFFDF713FDA079AF
:1037B000A8B1607898B900F021FDFDF7D5FAA9A36A
:1037C00006221421322000F0F6FDA6A306221421C1
:1037D0003220FDF7A6FB00F047FFFDF7FBFCE07988
:1037E000052801D017B118E10127C1E0B4F9100094
:1037F0000E307C2806DDB4F91200222802DD307874
:1038000002280CD0B4F914000E307C281DDDB4F968
:103810001600222819DD307802280BD015E001208F
:10382000A072C4F830B0C4F834B075B9606D401CF3
:10383000606509E00220A072C4F830B0C4F834B06A
:103840001DB9A06D401CA0650125207958B102204A
:10385000A072C4F830B0C4F834B084F80480A06D0D
:10386000401CA06547E0607958B10120A072C4F8FF
:1038700030B0C4F834B084F80580606D401C6065D9
:1038800005E0A07A012802D0022834D0C5E000F07B
:10389000B5FCE07940B1012808D0022808D00328FF
:1038A00008D0042808D00FE070A306E072A304E05B
:1038B00074A302E076A300E078A3062214212C2052
:1038C00000F079FD00F0D0FEFDF74EFAE07940B14E
:1038D000012808D0022808D0032808D0042808D0DE
:1038E00043E062A33AE064A338E066A336E068A34D
:1038F00034E06AA332E000F081FCE07940B10128B5
:1039000008D0022808D0032808D0042808D00FE0E7
:1039100065A306E067A304E069A302E06BA300E0EF
:103920006DA3062214212C2000F045FD00F09CFE22
:10393000FDF71AFAE07940B1012808D0022808D032
:10394000032808D0042808D00FE057A306E059A3A5
:1039500004E05BA302E05DA300E05FA30622142164
:103960002C20FDF7DEFAFDF735FCE079052854D16F
:10397000FDF7FAF95BA3062214212E20FDF7D1FAF8
:10398000D4E91501CDE9000159A3062228212E20F2
:10399000FDF7C7FAFDF71EFC00F030FC51A306222C
:1039A00014212E2000F007FDD4E91501CDE9000116
:1039B0004FA3062228212E2000F0FDFC00F054FE2B
:1039C000D4E91501884211DD2249DAF800000860C7
:1039D000E07900F10100E071B9F8000000F10100A8
:1039E00080B2A9F80000B9F8021011E015DA1949FF
:1039F000DAF800000860E07900F10100E071B9F840
:103A0000021001F1010189B2A9F80210B9F8000011
:103A100001F074F90F4800F0BBFEA07A012801D034
:103A2000022810D140F2DC50FEF782F9E07900253F
:103A3000401CE07184F80A80A4F810802E21618275
:103A4000A4F81480E182012001F0C6FF8FE6000097
:103A50000A0000206C00002000FC000857494E219D
:103A6000000000004641494C210000005231205026
:103A70003157494E21000000523220503157494EF3
:103A800021000000523320503157494E21000000E0
:103A9000523420503157494E2100000052352050F9
:103AA0003157494E21000000523120503257494EC3
:103AB00021000000523220503257494E21000000B0
:103AC000523320503257494E2100000052342050CA
:103AD0003257494E21000000523520503257494E8E
:103AE0002100000047616D654F766572000000009F
:103AF000202564203A202564000000001CB5BC4E3F
:103B0000BC4DDFF8F4A2DFF8F4B2BD4C40F6C418A7
:103B100001274FF000093078022802D0012875D023
:103B200061E1FEF7D9FAE063B4F912102E2907DD3E
:103B3000A16B421A424503D3216B491E2163A06346
:103B4000206B00B92771FEF7C7FA28606422694626
:103B5000606A02F087FE01280BD0E079002878D057
:103B6000012877D0022876D0032875D0042874D095
:103B700037E16421A06A02F011FF01286ED12968A3
:103B8000CAF800109DF8000004286ED0052802D065
:103B90000628F3D116E1E07940B1012812D00228BD
:103BA0001CD0032826D0042831D041E0B4F91020DD
:103BB0009BF8000082423BDCD0B2914A0523A17CF5
:103BC000A4322FE0B4F910009BF8001088422FDCDB
:103BD0008B4A0623A17CC0B2B83223E0B4F91000AE
:103BE0009BF80010884223DC854A0523A17CC0B2E3
:103BF000D03217E0B4F910009BF80010884217DCAF
:103C00007F4A0623A17CC0B28C320BE076E0B4F987
:103C100010009BF8001088420ADC794AA17CC0B2EF
:103C20000423E432FFF774FD10B9208A401D20827E
:103C3000A17C207CFFF712FD012811D1FEF74CFA80
:103C4000E063A16B421A40F2DC518A4208D3216B37
:103C5000AAE01BE024E02DE036E03FE004E004E0D1
:103C6000206B002800D12771A5E0B4F910000028CE
:103C700001DD401F20829EE0618A491F6182401D54
:103C8000A07098E0608A801C608294E0B4F9120011
:103C9000302851DA5A4AC1B20523207CA43226E0EA
:103CA000B4F91200302847DA554AC1B20623207C05
:103CB000B8321CE0B4F9120030283DDA504AC1B2E3
:103CC0000523207CD03212E0B4F91200302833DA18
:103CD0004B4AC1B20623207C8C3208E0B4F91200B2
:103CE00030287EDA464AC1B2207C0423E432FFF752
:103CF00067FC08BB608A801C608272E0FEF7ECF90A
:103D0000E063B4F912102E2907DDA16B421A424577
:103D100003D3216B491E2163A063206B00B9A771F7
:103D2000FEF7DAF9286064226946606A02F09AFDBB
:103D3000012802D06078D8B353E06421A06A02F071
:103D40002DFE012837D12868CAF800009DF8000030
:103D500004288AD005287FF41BAF607880B9B4F9B5
:103D600010009BF8001088420ADC254AA17CC0B2F2
:103D70000823F432FFF7CCFC10B9208A401D2082C2
:103D8000A17C207CFFF76AFC01287FF469AFFEF775
:103D9000A3F9E063216B03290BD0A26B831A40F2D5
:103DA000DC529342FFF45CAF491E2163A06357E7E6
:103DB0000DE00220206300231A461946A06A02F093
:103DC00041FC10E0A07814283FF65CAF54E7B4F94A
:103DD0001200302805DA0A4AC1B20823207CF432E6
:103DE00085E784F80290012001F0F6FD93E60000DB
:103DF0000A00002000000020040000200B0000202A
:103E00001000002010B50948FDF7C2FE0A2107483E
:103E1000FDF720FE0548FDF75DFD800504D503484C
:103E2000FDF75AFD80B210BD002010BD300C0020FF
:103E3000014909680160704700FC00083EB5002494
:103E400010480094019402940D4984600160047349
:103E50000475012505614FF460214460C161FDF7DF
:103E60003FFD08B1FDF7C6FBCDE9004569460548B1
:103E70000294FDF7B1FC002801D0FDF7BBFB3EBD6D
:103E800000240140300C002010B5B2B0FEF724F938
:103E9000324CA063012002F065FBA06200220821E1
:103EA000042002F06AFB606200220821042002F074
:103EB00064FB2062012002F055FBE0621C222849CD
:103EC0006846FCF78BF90021684601F091FD244912
:103ED000A0661C221C3107A8FCF780F9002107A866
:103EE00001F086FD1E49E0661C2238310EA8FCF761
:103EF00075F900210EA801F07BFD194920671C22ED
:103F0000543115A8FCF76AF9002115A801F070FDDD
:103F1000134960671C2270311CA8FCF75FF900216F
:103F20001CA801F065FD0E49A0671C228C3123A856
:103F3000FCF754F9002123A801F05AFD0849E06775
:103F40001C22A8312AA8FCF749F900212AA801F06F
:103F50004FFD04F18001086032B010BD1000002058
:103F6000187900082DE9F04385B000243148009409
:103F7000019402940394816941F010018161816987
:103F800001F010010491816941F020018161816992
:103F900001F020010491816941F00401816181698E
:103FA00001F004010491816941F008018161806997
:103FB000012200F00800DFF88080160304903146EB
:103FC0004046FEF784F8DFF874904FF470770122D2
:103FD00039464846FEF77BF8194802250096CDE998
:103FE000010569464846FDF77DFF4FF4C0408DE866
:103FF000310069464846FDF775FF0096112669466F
:1040000040460196CDE90245FDF76CFFCDE900760B
:1040100069464846CDE90245FDF764FF00220521C7
:104020002820FEF7F7F82820FEF7E6F805B0BDE8EF
:10403000F08300000010024000080140000C014025
:104040000000111010B592B000240F941C2108A894
:104050001094FCF7DCF820216846FCF7D8F82048DB
:104060001E4901604721C0E9011440F2E731C0E96F
:1040700003148021C0E90541FEF72BFF08B1FDF7CD
:10408000B9FA0F940FA916481094FEF7ABFC08B1CB
:10409000FDF7B0FA6020CDE908040A940C940D9461
:1040A0000C2208A90E480E94FEF7ADFE08B1FDF7EC
:1040B000A1FA00944FF40050CDE904400294019419
:1040C0000394694606480794FEF762FC08B1FDF7C1
:1040D00091FA0348FEF770FE12B010BD002C0140AB
:1040E000600C002010B58CB024216846FCF78FF8D6
:1040F00000241648099414490A94C0E900144FF6A4
:10410000FF71C0E90241046184610320CDE900042C
:104110000120CDE902040494CDE9054007946946E5
:104120000A480894FEF7ECFC08B1FDF763FA09941D
:1041300009A906480A94FEF755FC002801D0FDF7AE
:1041400059FA0CB010BD000000040040A80C00207B
:104150000C4810B50A4901604FF416514160002126
:1041600081600C22C160C0E904128161C161FFF766
:1041700085F8002803D0BDE81040FDF73BBA10BD1C
:1041800000380140F00C00200C4810B50A490160CD
:104190004FF4E1314160002181600C22C160C0E92F
:1041A00004128161C161FFF769F8002803D0BDE8FE
:1041B0001040FDF71FBA10BD00440040380D00202C
:1041C0000C4810B50A4901604FF4165141600021B6
:1041D00081600C22C160C0E904128161C161FFF7F6
:1041E0004DF8002803D0BDE81040FDF703BA10BD1C
:1041F00000480040800D0020FEE7FEE710B50021DA
:10420000074C0A46002004EBC1131A54401CC0B2EC
:104210008028FAD3491CC9B20829F3D310BD000085
:104220009C010020F0B50B4424E0044685181DE0F5
:104230007F2C19D8002917DB3F2915DCCE1701EB9D
:1042400056764FEAE60C0D4F26F0070607EBCC1723
:104250002744A1EB060E97F800C0012606FA0EF6D9
:104260002CEA060C87F800C0641C24B2A542DFDCEF
:10427000491C09B28B42D8DCF0BD00009C01002033
:1042800010B500204FF47A720021491C9142FCD3F2
:10429000401C9042F8D3FFF765FE012000F0F8F9CA
:1042A000BDE81040012000F0FDB970B500240646BD
:1042B000802525FA04F0304000D0012000F0F2F90A
:1042C000012000F0E5F9002000F0E2F9641CE4B2FE
:1042D000082CEED3012000F0DBF9BDE8704000208F
:1042E00000F0D6B910B5012000F0DCF9012000F093
:1042F000CFF9002000F0D6F9BDE81040002000F012
:10430000C7B910B5002000F0CDF9012000F0C0F9C8
:10431000BDE81040012000F0C5B910B5FFF7B0FFAF
:10432000AE2000F0C9F9D52000F0C6F9802000F0D9
:10433000C3F9A82000F0C0F93F2000F0BDF9D32058
:1043400000F0BAF9002000F0B7F9402000F0B4F90D
:10435000A12000F0B1F9C82000F0AEF9DA2000F099
:10436000ABF9122000F0A8F9812000F0A5F9CF20C8
:1043700000F0A2F9D92000F09FF9F12000F09CF99B
:10438000DB2000F099F9302000F096F9A42000F02D
:1043900093F9A62000F090F98D2000F08DF91420FB
:1043A00000F08AF9AF2000F087F9FFF727FFBDE89A
:1043B000104000F059B90FB470B5C0B014460D46A6
:1043C000064648AA6846479900F0E2FC23466A463A
:1043D0002946304600F092F840B070BC5DF814FBFE
:1043E00010B50C4640F0B00000F066F9102040EA2D
:1043F000141000F061F904F00F00BDE8104000F067
:104400005BB9000008B5082B0DD0062B0AD10A4B6A
:1044100002EB420203EB4202C03A0092082306225A
:1044200000F00EF808BD054B03EB0212A2F5007276
:10443000102300920822F3E76C7500087C6F0008D7
:104440002DE9F04F1F4616460D4682460024FFF721
:10445000E9FE7F1EF81707EB50700121DFF898B0D6
:1044600001EBE00743E000203DE000BF0AEB000362
:104470007F2B36D8E91705EB5171CA1021F00701DF
:10448000691A002D03DA521E083112B209B202EB8A
:104490000409B9F1070F0ED8099A04FB06F8024483
:1044A0000BEBC91E18F802201EF803C08A404CEA24
:1044B000020C0EF803C009F10102072A11D80BEB18
:1044C000C91202EB0308099A04FB06FC024498F89F
:1044D00080301CF80220C1F10801CA40134388F85B
:1044E0008030401CC0B2B042C0D3641CE4B2A742CA
:1044F000B9DCBDE8F08F00009C0100202DE9FF4FE2
:10450000002483B09B4690462546A246DFF8509192
:104510009EE0100610D403988DF80420641C2844F3
:10452000A4B28DF805A000B25B460499FFF76AFFBC
:1045300005EB0B0085B28BE00620B0EB521F0ED1CD
:10454000641CA0B28DF8042018F80010002974D063
:104550008DF80510401C84B28DF806A03CE00E20BA
:10456000B0EB121F16D1641CA0B28DF8042018F80D
:104570000010002971D0401C80B28DF8051018F889
:104580000010002969D08DF80610401C84B28DF807
:1045900007A021E01E20B0EBD20F1FD1641CA0B2F7
:1045A0008DF8042018F80010002956D0401C80B265
:1045B0008DF8051018F8001000294ED0401C80B26C
:1045C0008DF8061018F80010002946D0401C8DF810
:1045D000071084B28DF808A0002609E0641CA4B27C
:1045E00036E0384601A9FBF724FE68B1761CB6B266
:1045F00006EB860000EB461101EB0900074619A106
:10460000FBF717FE0028ECD1BBF1080F03D0BBF17C
:10461000060F1DD112E006EB860000EB461101EB00
:104620000900401D009003981023284400B21A4648
:104630000499FFF705FF103509E00EE00398062303
:10464000284400B23F220499FFF7DCFEAD1DADB255
:1046500018F80420002A7FF45CAF07B0BDE8F08FA3
:10466000A67700080000000070B5084D0024002166
:104670002046FFF7B5FE05EBC410802100F02DF8B1
:10468000641CE4B2082CF2D370BD00009C01002031
:1046900008B1012200E0002240210148FDF717BDCA
:1046A000000C014008B1012200E0002280210148F5
:1046B000FDF70DBD000C014010B50446FFF712FEDA
:1046C0007820FFF7F2FD0020FFF7EFFD2046FFF70F
:1046D000ECFDBDE81040FFF714BE70B50D46064670
:1046E000FFF700FE7820FFF7E0FD4020FFF7DDFD3B
:1046F000002404E0305DFFF7D8FD641CE4B2AC4256
:10470000F8D3BDE87040FFF7FCBD20BF00BF704785
:104710001D4C1E4E64274FF0000840F205154FF463
:10472000C4794FF4DC7A00BFB4F90C00642801DDD1
:10473000A78103E0002801DCA4F80C803168B4F9FB
:104740000C000864FCF74CFFA1890844A0812846AE
:10475000FCF796FDC82001F03FF94846FCF790FDB4
:10476000C82001F039F95046FCF78AFDC82001F055
:1047700033F92846FCF784FDC82001F02DF901200B
:1047800001F02AF9D0E7000010000020600C0020A2
:1047900070B586B00546002000900D4E0120CDE991
:1047A0000260FDF775FB04A96846FDF7D3FA002403
:1047B00024F001002A5A0023A1190120FDF728FB4B
:1047C000A41CA4B2042CF3D3FDF718FB06B070BDF3
:1047D00000FC000810B5502080F31188BFF34F8F04
:1047E000BFF36F8F02F036FA18B104494FF08050D2
:1047F0000860002080F3118810BD000004ED00E087
:1048000030B593B028216846FBF701FD14210AA8B2
:10481000FBF7FDFC002501200F9510951195010473
:1048200012958DE8230004904FF4E010CDE90810B4
:10483000022407946846FDF705FF08B172B6FEE74B
:104840000AA90F2081E831004FF48060CDE90D0501
:1048500002210AA8FDF7FAFD08B172B6FEE74FF48F
:10486000004011900F940FA8FDF77AFD002801D0A9
:1048700072B6FEE713B030BD704700000148FEF786
:1048800003BA0000C80D0020F0B50268194B1A4C9D
:104890001A4D4FF08047984205D0B84203D0A0424D
:1048A00001D0A84203D122F070064A6832439842F0
:1048B00005D0B84203D0A04201D0A84203D122F4CF
:1048C0004074CA6822434C6922F08002224302608D
:1048D0008A68C2620A688262984201D109690163EA
:1048E000012141610169C90703D0016921F001017A
:1048F0000161F0BD002C01400004004000080040B0
:1049000010B501F01F030121046A99408C43046231
:10491000016A9A401143016210BD000030B5036A7C
:10492000026A22F0010202624268846924F073057F
:104930000C682C4323F002058B682B430A4DA842D8
:104940000BD123F00805CB6822F440722B434D694C
:1049500023F0040315438A692A434260846149684D
:104960004163036230BD0000002C014030B5026A93
:10497000036A23F010030362436884690D6824F41A
:10498000E64444EA05248D6822F0200242EA05123A
:104990000B4DA8420ED1CD6822F0800242EA0512EA
:1049A0004D6923F4406343EA85038D6922F0400298
:1049B00043EA85034360846149688163026230BDD4
:1049C000002C014030B5036A026A22F48072026250
:1049D0004268C46923F4007324F073050C682C4307
:1049E0008D6843EA05230C4DA8420ED1CD6823F40F
:1049F000006343EA05234D6922F4405242EA05125E
:104A00008D6923F4806342EA05124260C4614968FB
:104A1000C163036230BD0000002C014030B5046A60
:104A2000026A22F4805202624268C3690D6823F46C
:104A3000E64343EA05238D6824F4005444EA053430
:104A4000064DA84204D14D6922F4804242EA851203
:104A50004260C36149680164046230BD002C0140BA
:104A600010B5406A0021C185C184FEF7CFFA10BDA0
:104A700001680C3151E8002F22F4907241E80023C4
:104A8000002BF5D10168143151E8002F22F001020A
:104A900041E80023002BF5D1016B012909D1016800
:104AA0000C3151E8002F22F0100241E80023002BC6
:104AB000F5D1202180F8421000210163704708B52C
:104AC00090F84210222901D0022008BD82684FF4DC
:104AD00080539A4201D1016921B1816A9A421BD067
:104AE0004AB10AE00268816A5268C2F308020A8089
:104AF000816A891C08E0026972B10268526802F09A
:104B00007F020A70816A491C8162C18D491E0904B5
:104B1000090CC18503D01BE002685268F1E7016807
:104B2000CA6822F02002CA600168CA6822F4807252
:104B3000CA6001684A6922F001024A61202180F8B6
:104B4000421000214163026B012A03D0FEF76AFC88
:104B5000002008BD016301680C3151E8002F22F0EC
:104B6000100241E80023002BF5D101680A68D20643
:104B700002D50A6849680091818DFEF746FAE7E799
:104B800070B5044600680169E26821F440511143A0
:104B900001612169A0680843616908432168CA6806
:104BA00041F20C639A430243CA6020684169A269DA
:104BB00021F44071114341611E492068884202D1AD
:104BC000FDF70AFD01E0FDF7F7FC00EBC00101EB8A
:104BD0000012606864218000B2FBF0F3B3FBF1F3D4
:104BE0006FF018067343B2FBF0F5B2FBF0F605EB7D
:104BF0008305322303EB0515B5FBF1F5B6FBF1F6A2
:104C000005F0F00505EB0615B2FBF0F6B2FBF0F08F
:104C1000B0FBF1F06FF01802504306EB800003EB9D
:104C20000010B0FBF1F0216800F00F00284488600C
:104C300070BD00000038014081628285C28500217C
:104C40004164222180F84210016921B10168CA68DB
:104C500042F48072CA6001684A6942F001024A6106
:104C60000068C16841F02001C160002070472DE953
:104C7000F843984617460D460446089E24E0701CEB
:104C800022D0FDF729FAA0EB0800B0421AD8CEB125
:104C90002068C168490717D5802D15D0402D13D045
:104CA0000168C94309070FD40168002540680090D6
:104CB0002046FFF7DDFE0820606484F840500120A4
:104CC000BDE8F8830320FBE72068006835EA0000B0
:104CD00004D00020B842D2D00020F1E70120F9E74B
:104CE0000148FEF795B90000F00C00200148FEF7DE
:104CF0008FB90000800D0020FEE7000070B50C4663
:104D000005461349134801F07FF94FF4FA7630460F
:104D100000F062FE10A10F4801F076F940F2DC507D
:104D200000F05AFE17490B4801F06EF9304600F0CA
:104D300053FE2A461449074801F066F9304600F050
:104D40004BFE2246BDE870401049024801F05CB9B4
:104D5000187A0008380D002041542B4D515454430B
:104D60004F4E4E3D302C226D717474732E68656306
:104D70006C6F7564732E636F6D222C313838332C51
:104D8000310D0A00D07A0008187B0008A07B0008CB
:104D900037B514460846064B6A46214600F0ECF843
:104DA00004466946002000F07EFC20463EBD00001F
:104DB000A75600080907090E002804DB00F1E020CF
:104DC00080F80014704700F00F0000F1E02080F838
:104DD000141D704702E008C8121F08C1002AFAD14A
:104DE00070477047002001E001C1121F002AFBD16B
:104DF000704700002DE9FF5F82B00021DDE904303B
:104E0000020DDDF840B0034318D044F61050A2F272
:104E1000FF3242431514119801281FD0A5EB0B0057
:104E2000401C5FEA000A4FF000064E4FDFF8389151
:104E3000B046504615D5CAF1000413E0119801247C
:104E40004AA3012801D16FEA0B010298119AC0E927
:104E50000031C0E9024206B0BDE8F09FCBF100008E
:104E6000DFE704460021404A491842EB0450CDE9EF
:104E7000001012E0E00707D032463B464046494664
:104E8000FBF78CFA8046894632463B461046194667
:104E9000FBF784FA06460F466410002CEAD1DDE9E0
:104EA0000401DDE90023BAF1000F06DAFBF776FA18
:104EB00042464B46FBF772FA05E0FBF7E1FA424641
:104EC0004B46FBF7DDFA04460E460022284BFBF763
:104ED00047FB03D84FF0FF30014607E00022254B87
:104EE00020463146FBF7B3F9FBF717FC102409E025
:104EF000002C0ADB0A220023FBF760FB039B303205
:104F00001A55641E50EA0102F2D1641C039AC4F1DE
:104F100011031444119A012A03D0012208430DD130
:104F20000AE0084304D000204FF0110B119072E703
:104F3000A3EB0B056D1E0DE05B4504DD4FF0000299
:104F400005F1010504E003DA4FF00002A5F10105C7
:104F5000002AECD002981199C0E90231C0E900455D
:104F600079E70000000014400000F03F300000002E
:104F70000000F0430000E03F2DE9FF4F95B09B4655
:104F80008946064600250FE2252877D100242746CA
:104F9000F84A0121059400E0044316F8013F203B44
:104FA00001FA03F01042F7D130782A2811D06FF0BF
:104FB0002F033078A0F13002092A16D8059A44F060
:104FC000020402EB820203EB42021044761C0590BD
:104FD000EFE759F8042B0592002A03DA504244F413
:104FE0000054059044F00204761C30782E2816D127
:104FF00016F8010F44F004042A280DD06FF02F0298
:105000003078A0F13003092B09D807EB870302EBB6
:105010004303C718761CF3E759F8047B761C3078F5
:105020006C280FD006DC4C2817D068280DD06A28D1
:1050300014D104E0742810D07A280FD10DE044F484
:1050400000140AE044F4801401E044F4401472783F
:10505000824202D104F58014761C761C30786628D2
:105060000BD013DC582877D009DC002875D04528F0
:10507000F6D04628F4D047281AD19DE118E06328DD
:1050800035D0642879D0652812D195E1702873D085
:1050900008DC6728F1D069286FD06E280DD06F2802
:1050A00006D1B5E073282CD0752875D0782874D037
:1050B0005A46179990476D1C75E1C4F302500228B7
:1050C00009D003280DD0D9F8001004280DD00D60A8
:1050D00009F1040967E1D9F80010EA17C1E90052A3
:1050E000F6E7D9F800100D80F2E70D70F0E719F837
:1050F000041B8DF8001000208DF80100EA46012005
:1051000003E059F804AB4FF0FF3061074FF00001A6
:1051100002D40DE008F101018846B9420FDA80455A
:10512000F8DB1AF808100029F4D108E008F10101B1
:1051300088468142FADB1AF808100029F6D1059852
:105140005B46A0EB080721463846179A00F094FA10
:10515000284400EB080507E04DE029E10DE01AF8CE
:10516000010B5A4617999047B8F10108F7D25B46F0
:1051700021463846179A13E142E00A220092C4F30E
:1051800002524FF0000A022A08D059F804CB032A31
:105190004FEAEC710AD00DE029E02AE009F107019D
:1051A00021F00702F2E802C1914609E00FFA8CFCF7
:1051B0004FEAEC71042A03D14FFA8CFC4FEAEC71F0
:1051C000002907DA0A460021DCF1000C61EB02013C
:1051D0002D2202E0220504D52B228DF80420012285
:1051E00003E0E20701D02022F7E7904659E00A21C8
:1051F00002E010220DE010214FF0000A00910BE0B8
:1052000010224FF0000A44F004040827009203E043
:1052100008224FF0000A0092C4F30252022A05D07D
:1052200059F804CB0021032A08D009E009F107014D
:1052300021F00702F2E802C1914605E01FFA8CFC5A
:10524000042A01D10CF0FF0C4FF00008220728D5EA
:10525000702806D0009B83F0100353EA0A0305D0A0
:105260000EE040228DF80420012208E05CEA0102F1
:1052700006D030228DF804208DF8050002229046D9
:10528000009B83F0080353EA0A030AD15CEA010297
:1052900001D1620705D530228DF804204FF00108B6
:1052A0007F1E582804D034A003900EA802900DE071
:1052B00036A0F9E753466046009AFBF77FF984462B
:1052C0000398825C0298401E029002705CEA010022
:1052D000F0D1029806A9081A00F1200A600702D549
:1052E00024F4803400E00127574502DDA7EB0A00D3
:1052F00000E0002000EB0A01009005984144401AAC
:105300000590E00306D45B462146179A059800F005
:10531000B3F90544002706E001A85A46C05D179975
:1053200090476D1C7F1C4745F6DBE0030CD55B46C0
:105330002146179A059800F09FF9054404E03020B3
:105340005A46179990476D1C0099481E00900029F5
:10535000F5DC08E0029802995A460078491C02914F
:10536000179990476D1CBAF10001AAF1010AF1DC0E
:1053700065E1000009280100303132333435363719
:105380003839616263646566000000003031323391
:105390003435363738394142434445460000000031
:1053A00000F058F90544761C307800287FF4ECAD05
:1053B00019B02846BDE8F08F620700D4062709F12E
:1053C000070222F0070CFCE80223E14603F0004844
:1053D0005FEA080C02D00FF2702C0DE05FEA045C6B
:1053E00002D50FF2682C07E05FEAC47C02D00FF20E
:1053F000602C01E0AFF2700C4FF0FF3823F0004357
:10540000CDF850C065280CD006DC452809D04628C8
:105410001DD047283DD13DE0662818D067287ED1B1
:1054200038E00021112F01DB112000E0781CCDE9CC
:10543000000106A90EA8FFF7DDFCDDE90F010E9AB9
:1054400003910021009207F1010A04914DE04FF011
:1054500000400097CDE9011006A90EA8FFF7CAFC8D
:10546000DDE90F0203920E9B11990022DDF80CA0DA
:105470000093049211B9791C00EB010AB7EB0A0002
:1054800004D4C0F1FF3007F1010A0490AAEB070031
:10549000019044E0012F00DA01270021112F01DDE6
:1054A000112000E03846CDE9000106A90EA8FFF75B
:1054B000A1FCDDE90F010E9A0391002104910092F5
:1054C000BA4621070CD40399514500DA8A46BAF14D
:1054D000010F05DD009AAAF10101515C302908D0C5
:1054E000B84202DA10F1040F06DA0121CDE9011009
:1054F00015E0AAF10101E9E7002805DC049901445F
:105500000491AAEB000102E0411C514500DD8A46EE
:105510000499401A401C01904FF00040029020076F
:1055200004D40198504501DBCDF8048000208DF8AB
:105530004F0002980DF14F07B0F1004F25D02B20FE
:105540000E9002984FF0020800280CDA40420290B8
:105550002D200E9007E00A210298FBF719F8303150
:10556000029007F8011DB8F10001A8F10108F2DC72
:1055700002980028EFD1791E0E980870307800F05C
:10558000200040F0450007F8020D12A8C01B00F1F2
:1055900007081498007800B1012000EB0A01019877
:1055A00001EBE07105984144401A401E0590E0036C
:1055B00006D45B462146179A059800F05DF805442D
:1055C0001498007818B15A46179990476D1CE0035B
:1055D00024D55B462146179A059800F04DF80544FE
:1055E0001CE00498002807DBDDE90301884203DDA5
:1055F0000098405C179901E0179930205A4690476F
:10560000049805F10105401C04900198401E01908A
:1056100004D12E205A46179990476D1CBAF100010B
:10562000AAF1010ADDDC05E017F8010B5A461799CB
:1056300090476D1CB8F10001A8F10108F4DC5B464D
:105640002146179A0598ABE62D0000002B000000BC
:10565000200000002DE9F041044600251E461746B3
:10566000880404D405E039462020B0476D1C641E30
:10567000F9D52846BDE8F0812DE9F0410446002522
:105680001E469046C80301D5302700E02027880435
:1056900004D505E041463846B0476D1C641EF9D577
:1056A0002846BDE8F0810A68531C0B6010707047F3
:1056B0000EB5FCF71FFDFFF7A3F8FEF753FCFEF74E
:1056C000C1FCFEF745FDFEF7B9FBFEF779FDFEF7DD
:1056D0005BFDFEF707FDFEF720FEFBF7D4FB0C2178
:1056E0009648FDF739FC3C219548FDF785FA954829
:1056F000FDF78EFC9448FDF78BFC9448FDF788FC81
:105700002820FCF779FD02A8FEF792FBBDF80810EF
:105710004FF6FF70814203D0BDF80A10814207D1D5
:105720000020ADF80800ADF80A0002A8FFF730F835
:10573000874C884E4FF400574FF48048012520795C
:1057400060B100BFFEF75AFDFBF70EFBFEF78CFFC2
:10575000FBF740FD804FDFF804826BE080A3062258
:1057600014210A20FEF727FE7DA3062214210A2019
:10577000FBF7D7FBFEF778FFFBF72CFD39463046E9
:10578000FCF7A0FC012815D041463046FCF79AFCF6
:105790000128D4D13220FCF7CBFA41463046FCF741
:1057A00091FC0128CBD10221A17020466E21C1704D
:1057B0002571C7E73220FCF7BBFA39463046FCF7C3
:1057C00081FC0128BBD12046A570EE21EFE769A33B
:1057D000062214210A20FEF7EEFD66A306221421FC
:1057E0000A20FBF79EFBFEF73FFFFBF7F3FC0422CA
:1057F00059495448FDF708FE387820281AD1F8781E
:10580000612817D17878012814D1B878022802D0FD
:1058100003280FD102E020225A4901E05A492022F0
:105820005A48FAF7DBFC2570642304224A494548AC
:10583000FDF774FE20780028C9D036E054A3062274
:1058400014210A20FEF7B7FD51A3062214210A20D5
:10585000FBF767FBFEF708FFFBF7BCFC04223F49A0
:105860003948FDF7D1FD98F80010404620291CD199
:10587000C178612919D14178022916D198F802001E
:10588000022802D0032810D102E020223D4901E085
:105890003D4920223D482030FAF7A0FC6570642382
:1058A00004222E492848FDF739FE60780028C5D02B
:1058B000FEF7A4FCFBF758FA39A3062214212C208A
:1058C000FEF779FD38A3062228210220FEF773FD9A
:1058D000BDF80A10BDF80800CDE9000138A3062282
:1058E00038212E20FEF767FDFEF7BEFE2CA3062210
:1058F00014212C20FBF715FB2BA3062228210220C4
:10590000FBF70FFBBDF80A10BDF80800CDE9000158
:105910002BA3062238212E20FBF703FBFBF75AFCB2
:105920004FF4805421463046FCF7CCFB0028F9D0D8
:10593000FEF7AAFA00F057F8FEE70000600C00201E
:10594000A80C0020800D0020F00C0020380D002055
:1059500008000020000C01407000002074000020AE
:1059600043686F6F736520796F7572204D6F646542
:105970000000000050312063686F6F736520726F04
:105980006C657300A9780008C97800089C0900209C
:1059900050322063686F6F736520726F6C6573009F
:1059A00057656C636F6D6500507265737320427547
:1059B00074746F6E20746F207374617274000000D1
:1059C000202564203A2025640000000001460020C4
:1059D000842900D0C81C704710B500B9012000F020
:1059E0004FFC002010BD10B500F0E6FC002010BDFB
:1059F0007FB50D4604464169B0F9080081B1A1693F
:105A000071B1FFF7E3FFD4E905128DE80700D4E98F
:105A100000102B46226901F0E4F8039004B070BD39
:105A2000FFF7D4FF03A9CDE90001208A2B4682B2FB
:105A3000D4E9001001F0A8F8012801D00020EDE71A
:105A40000398EBE72DE9F041184C0F460546E66850
:105A50002068001D00F0F6FA38B9206890F82C1084
:105A600001208840216981432161681C07D137B139
:105A70002168BDE8F0410E48091D00F053BB2068C5
:105A80003544B5424560216805D2A06BBDE8F041C0
:105A9000091D00F02FBB606B091D00F02BFBA06AF5
:105AA000854200D2A562BDE8F081000034010020EB
:105AB0000C0F00202DE9F041054600F03FFB2E4C75
:105AC000A068401CA06020682C4F10B1606940B3F2
:105AD0002DE02560A068012829D1002606EB86006C
