:020000040800F2
:10000000B02D00200D0300082B5300083B490008C9
:10001000295300087B270008FD5D00080000000050
:100020000000000000000000000000007502000851
:10003000B927000800000000B9020008D9580008DC
:1000400027030008270300082703000827030008E8
:1000500027030008270300082703000827030008D8
:1000600027030008270300082703000827030008C8
:1000700027030008270300082703000827030008B8
:1000800027030008270300082703000827030008A8
:100090002703000827030008270300082703000898
:1000A0002703000827030008270300082703000888
:1000B00027030008270300088159000827030008C8
:1000C0002703000827030008270300082703000868
:1000D00027030008E55D000827030008F15D00081C
:1000E00027030008270300082703000800F002F890
:1000F00000F0B0F80AA090E8000C82448344AAF112
:100100000107DA4501D100F0A5F8AFF2090EBAE80F
:100110000F0013F0010F18BFFB1A43F0010318473B
:1001200094830000B48300000A444FF0000C10F8E0
:10013000013B13F0070408BF10F8014B1D1108BF65
:1001400010F8015B641E05D010F8016B641E01F805
:10015000016BF9D113F0080F1EBF10F8014BAD1C55
:100160000C1B09D16D1E58BF01F801CBFAD505E073
:1001700014F8016B01F8016B6D1EF9D59142D6D3CD
:10018000704700000023002400250026103A28BFF5
:1001900078C1FBD8520728BF30C148BF0B607047F9
:1001A0006E2900F09982702900F0DB83662907F040
:1001B0008382652907F08082672907F07D826129A3
:1001C00007F07C8203681B0A28BF41F0800169297F
:1001D00000F04682642900F04382752900F04082D5
:1001E0006F2900F06883782900F0A783E92900F0DF
:1001F0000383E42900F00083F52900F0FD82EF2954
:1002000000F06583F82900F0A6830368DB0928BFA6
:1002100041F08001632901F0A980732901F0AE80CB
:10022000E32901F0B980F32901F0BE800020704776
:100230001FB501F00FF904000020002107F026FA95
:10024000401C60600020002107F00AFAE0601FBD3A
:1002500010B510BD01F0D0F81146FFF7E9FF05F029
:1002600045FE01F0ADF903B4FFF7F2FF03BC01F066
:10027000B1F90000224B19680868B0E8F00F80F36C
:100280000988BFF36F8F4FF0000080F311884EF0A4
:100290000D0E70470000000006480068006880F3FB
:1002A000088862B661B6BFF34F8FBFF36F8F00DF70
:1002B00000BF00BF08ED00E0EFF30980BFF36F8FD0
:1002C0000F4B1A6820E9F00F106008B54FF050008E
:1002D00080F31188BFF34F8FBFF36F8F06F032FCAE
:1002E0004FF0000080F31188BDE8084019680868E5
:1002F000B0E8F00F80F30988BFF36F8F704700BF3D
:1003000000010020EFF30580704700000948804796
:1003100009480047FEE7FEE7FEE7FEE7FEE7FEE7E7
:10032000FEE7FEE7FEE7FEE704480549054A064BFF
:10033000704700007D590008ED000008B02700203C
:10034000B02D0020B0290020B0290020B2F12003F8
:100350000AD5C2F1200320FA02F001FA03F321FAD0
:1003600002F140EA0300704721FA03F04FF0000168
:10037000704700001CB50C46064B7B446946009054
:10038000204600F0C2F904460020694600F0D0F98A
:1003900020461CBDB303000010B5431C02E010F85A
:1003A000011B71B18107FAD14FF0013202C88C1ADA
:1003B0008C4314EAC211F9D0C01A0A0603D0C01E39
:1003C00010BDC01A10BD0A0401D0801E10BD090264
:1003D000FCD0401E10BD032A40F2308010F0030C08
:1003E00000F0158011F8013BBCF1020F624498BF88
:1003F00011F801CB00F8013B38BF11F8013BA2F125
:10040000040298BF00F801CB38BF00F8013B11F09F
:10041000030300F02580083AC0F0088051F8043B3F
:10042000083A51F804CBA0E80810F5E7121D5CBFAC
:1004300051F8043B40F8043BAFF30080D20724BFDF
:1004400011F8013B11F801CB48BF11F8012B24BF73
:1004500000F8013B00F801CB48BF00F8012B7047C2
:1004600010B5203AC0F00B80B1E81850203AA0E84F
:100470001850B1E81850A0E81850BFF4F5AF5FEA83
:10048000027C24BFB1E81850A0E8185044BF18C936
:1004900018C0BDE810405FEA827C24BF51F8043BDD
:1004A00040F8043B08BF7047D20728BF31F8023B31
:1004B00048BF11F8012B28BF20F8023B48BF00F8C5
:1004C000012B70474FF0000200B513469446964644
:1004D000203922BFA0E80C50A0E80C50B1F1200157
:1004E000BFF4F7AF090728BFA0E80C5048BF0CC005
:1004F0005DF804EB890028BF40F8042B08BF704763
:1005000048BF20F8022B11F0804F18BF00F8012BD4
:10051000704700004FF0013C50F8042B51F8043BA9
:100520009A4221D1A2EB0C03934313EACC1317D1C7
:1005300050F8042B51F8043B9A4215D1A2EB0C035E
:10054000934313EACC130BD150F8042B51F8043B1E
:100550009A4209D1A2EB0C03934313EACC13DBD0EC
:100560004FF00000704700BFD01A01BAB1FA81F114
:1005700001F0180122FA01F0CB40C1F12001DBB2F9
:10058000C0B2C01A2CFA01F3D11A914311EAC31177
:10059000E6D1704770477047704770B5044685696B
:1005A0000068C10601D5302600E02026C00707D02C
:1005B00070BDD4E9012130469047206A401C20627A
:1005C0006D1EF6D570BD70B5044685690078C0070C
:1005D00007D170BDD4E9012120209047206A401C3A
:1005E00020626D1EF6D570BD09684A0501D540B27E
:1005F0007047C905FCD500B2704709684A0501D5A6
:10060000C0B27047C905FCD580B2704770B50C46C2
:100610000546012A05D02878800600D5EA6900231E
:1006200002E0012305E05B1C934202D2E05C00285B
:10063000F9D1A869E618C01AA861286A1844286286
:100640002846FFF7AAFF04E0D5E9012114F8010BC1
:100650009047B442F8D32846FFF7B5FF70BD0000BD
:100660002DE9F0410646002410687529314616A58B
:1006700010D0FFF7B9FF002802DA404213A507E0C7
:1006800031688A0701D512A502E0490704D511A5F2
:10069000012401E0FFF7B1FF00210A2206F124073F
:1006A00009E0B0FBF2FCB0FBF2F302FB1C003030BF
:1006B00078541846491C0028F3D123462A46304670
:1006C000BDE8F04100F061BA000000002D0000001C
:1006D0002B0000002000000011680268006A53052A
:1006E00001D508700AE0D30501D5088006E013069D
:1006F00003D5C217C1E9000200E00860012070477D
:1007000001694A1C02610878704700B58FB0CDE9D5
:1007100001310021059105497944CDE903101146C5
:10072000684600F029F90FB000BD0000E5FFFFFFAB
:100730000A6802F8010B0A60704700002DE9FF5FAC
:1007400015468A460446DFF8AC80F8440027D8E90D
:1007500000103E46CDE9001010E03AF816106A4647
:1007600002A800F025FE411C07D02178890603D598
:10077000E269391891420DD80744761C207880062A
:1007800002D5E069B84205DDAE42E6DB3AF8160074
:100790000028E2D1A069C01BA0612046FFF7FDFE42
:1007A000D8E90010CDE90010002017E03AF8181041
:1007B0006A4602A800F0FCFDB0F1FF3F81460BD075
:1007C00000250DF1080B05E0D4E901211BF8050017
:1007D00090476D1C4D45F7D308F10100B0428046AB
:1007E000E4DB206A384420622046FFF7ECFEBDE8D7
:1007F000FF9F00000E7A00002DE9F0418046D21DD7
:1008000022F007020025D2E90002F52915A614D02E
:10081000011E72F1000106DA0023D0EB030063EB46
:10082000020211A608E0D8F800108B0701D50FA628
:1008300002E0490701D50EA601251146002408F162
:10084000240704E000F05CF930323A55641C50EAA9
:100850000102F7D12B46324621464046BDE8F04121
:1008600000F093B9000000002D0000002B000000F4
:100870002000000030B4002100F1240408E002F060
:100880000705D208303542EA4372DB086554491C3B
:1008900052EA0305F3D10468002310A2250707D507
:1008A000A40600D421B1C46901230DA2641EC46151
:1008B00030BC00F06AB910B5044621461068FFF755
:1008C0009CFE02462046BDE810400023D2E7D21D20
:1008D00022F00701D1E90023CCE70000000000006E
:1008E00030000000F0B40D460188090502D5214C06
:1008F0007C4402E01F4C7C440E34002100F12406AD
:1009000008E002F00F071209E75D42EA03721B09D3
:100910007754491C52EA0307F3D1027800231207E7
:1009200004D5702D06D009B1022311342246F0BC43
:1009300000F02BB901231034F8E770B504460D46DA
:1009400021461068FFF759FE024629462046BDE8B9
:1009500070400023C6E7D21D22F00703D3E900232D
:10096000C0E70368126843F0200303600823C361F3
:100970000023B7E7707800002DE9F05F8946044650
:100980004FF0000ADFF874B1FB44C0F820A0204605
:10099000E1688847002874D0252806D0D4E90121D1
:1009A0009047206A401C2062F1E700265F462046FF
:1009B000E16888472028054607DB312D05D27819E4
:1009C00010F8200C08B10643F1E7B00701D526F076
:1009D0000406C4F81CA00027C4F818A02A2D09D0CA
:1009E000284605F07BFA38B304EB8708303DC8F899
:1009F000185019E059F8041B204604EB8702916156
:100A0000E1688847012F054618D1E069002820DAFF
:100A100026F020061DE0D8F8180000EB800005EB5A
:100A200040003038C8F818002046E168884705467D
:100A300005F054FA0028EED1012F0AD02E2D08D14E
:100A40002046E16888477F1C0546022F46F02006B5
:100A5000C4DBA069002803DA404246F00106A06129
:100A6000F00701D026F010066C2D0BD0682D09D0B0
:100A70004C2D39D06A2D35D0742D35D07A2D33D008
:100A800016E038E0E1682F4620468847B842054620
:100A900009D16C2F26D04FF48060E16806432046D0
:100AA0008847054604E06C2F1AD04FF48070064347
:100AB0000DB3A5F14100192802D8203546F400668F
:100AC0004A462946204626604E46FFF769FB80B11C
:100AD00001280BD0F61D26F0070000F1080956E7A3
:100AE0004020E4E78020D8E70020D6E706F104099B
:100AF0004DE7284652E7206ABDE8F09F00780000E5
:100B000030B5B0F10A024FEA900E71F100034EEADF
:100B1000817EB0EB0E0061EB91014FEA101E4EEAB0
:100B2000017E10EB0E0041EB11114FEA102E4EEA40
:100B3000016E10EB0E0041EB11214FEA104E4EEA10
:100B4000014E10EB0E0041EB1141401841F1000144
:100B50004FEAD00040EA41704FEAD10110EB800526
:100B60004FEA810444EA907444EB01046D1944EBAC
:100B70000404521BA3414FF0000348BF0A3200D5C2
:100B800030BD401C41F1000130BD2DE9F0470D465C
:100B900099469246044600F124080168880604D567
:100BA000E06921F01001216000E00120A84201DD90
:100BB000471B00E00027A1697A1902EB0900081A17
:100BC000A0612078C00602D42046FFF7E6FC00268C
:100BD00008E0D4E901211AF806009047206A401C79
:100BE000761C20624E45F4DB2078C0060AD52046EC
:100BF000FFF7D3FC06E0D4E9012130209047206ABA
:100C0000401C2062381EA7F10107F4DC07E0D4E99C
:100C1000012118F805009047206A401C2062281E18
:100C2000A5F10105F3DC2046FFF7CDFC2078000696
:100C300002D50220BDE8F0870120FBE770472DE9CF
:100C4000FF4F0C461E464FF0FF378BB0D2E9000134
:100C5000DDF860800A908A46C1F30A5505B93D4621
:100C6000002108464FF00000BAF1000F00F44000E8
:100C700005DA00EB80004FF4400101EA50004FEA32
:100C80009059B9F1010F00DDB9460A9850EA4A00BF
:100C90000ED044F61050A5F2FF3545432F14B8F19D
:100CA000000F1ED07542291E1EDDC9F100021CE096
:100CB000B8F1010F4FF0000001D0302103E0F24302
:100CC00005E02154401CB042FBDB304600220021ED
:100CD00021540B99C1F80880C1E900200FB0BDE88C
:100CE000F08FBD1B6D1CDEE74A4600DA694206A89C
:100CF00000F0F4FB06AB93E8070003AB83E80700C2
:100D000050460A9900F06DFC8DE80700A0F50050F0
:100D10001F3800900398002D0ADD42F21F014A4659
:100D20000844002303A90390684600F0D6FE09E0BA
:100D3000A0F500504A461F38002303A903906846D7
:100D400000F0E0FE8DE807000004000C03D04FF037
:100D5000FF30410800E01046B8F1000F03D0002238
:100D6000009215461EE0751E05D4FFF7C9FE30320D
:100D700062556D1EF9D5B3460122084302D0002208
:100D80007F1C04E02078302801D100227F1E002A39
:100D9000099784D01DE0112D07DAFFF7B1FE30323C
:100DA00062556D1C50EA0102F5D1084302D000984B
:100DB000C8B10EE00021681E05E0235C625C63544C
:100DC0002254401E491C8142F7DBAB46A81B401E43
:100DD0000990002004F80B000B98099AC0F80880CD
:100DE000C0E9002B7AE711264FF0000857E72DE9FC
:100DF000F04F88460446D21D22F0070191B0D1E998
:100E00000001CDE90A0105F045F802460B98C00F34
:100E100001D02D2007E02068810701D52B2002E0BA
:100E2000202101EAC000032A099001D0072A05DB2E
:100E300003464146204600F011FB0BE12078800676
:100E400001D5E06900E00620B8F1650F814606D0C3
:100E5000B8F1660F18D0B8F1670F70D131E00020FB
:100E6000B9F1110F009001DB112301E009F1010339
:100E70000AAA01A90CA8FFF7E2FEDDE90C70002622
:100E800009F10105834647E001204B4600904FF0F1
:100E900000470AAA01A90CA8FFF7D1FEDDE90DB0B1
:100EA0000C995D46002610B909F101000D18B9EB47
:100EB000050003D4C0F1FF3609F10105A5EB0900D7
:100EC0002BE0B9F1010F01DA4FF001090020B9F16F
:100ED000110F0090484601DD112300E003460AAAE5
:100EE00001A90CA8FFF7ABFEDDE90C704D4600260A
:100EF0008346207800070AD4AB4500DA5D4601A896
:100F0000012D04DD411911F8011C302907D04F458E
:100F100002DA17F1040F04DA012082460FE06D1E99
:100F2000EEE7002F02DCED1B3E4403E0781CA842F4
:100F300000DD7D1CB81B00F1010A4FF0004720784E
:100F4000000703D4AA4501DB4FF0FF3A0021B7F1B7
:100F5000004F0DF143088DF8431024D002202B23BD
:100F6000002F01DA7F422D230A21021EA0F1010089
:100F700000DC5FB197FBF1FC97FBF1F201FB1C7CFD
:100F800017460CF1300C08F801CDEEE7A8F101008E
:100F900003702188090501D5452100E06521A0F1F4
:100FA000010800F8011C09980FA9A1EB0807FF1D13
:100FB00000B10120411901EBEA70A1693844081A17
:100FC000401EA0612078C00602D42046FFF7E5FA53
:100FD000099828B1D4E901219047206A401C206279
:100FE0002078C00622D52046FFF7D7FA1EE0002E53
:100FF00004DBB34502DD01A8805D00E03020D4E9C8
:1010000001219047206A401C2062761CAAF1010051
:101010005FEA000A0AD100F01DFAC0680168405C6E
:10102000D4E901219047206A401C2062281EA5F1C6
:101030000105DCDC07E0D4E9012118F8010B904739
:10104000206A401C2062381EA7F10107F3DC20460D
:10105000FFF7B9FA032011B041E600002DE9F04F87
:1010600004460D46D21D22F0070089B0D0E9009752
:101070004846394604F00EFF0246F80F01D02D23F2
:1010800007E02068810701D52B2302E0202101EA37
:10109000C0038DF820300BB1012000E00020032AAE
:1010A000824601D0072A04DB2946204600F0D6F903
:1010B0003FE12078800601D40D2500E0E569C7F303
:1010C0000A560D2D49DA00214FEA175B08464FF00A
:1010D0000000002F00F4400007DA00EB80004FF41E
:1010E000400100EBD07001EA60008115012901DDAB
:1010F0004FF0FF3100224FEA850CBCF1180F06D3E8
:101100001346ACF118004FF08052C24003E04FF498
:10111000801323FA0CF30CF10C0CBCF1200F04D358
:10112000ACF1200C09FA0CF001E007FA0CF00029F0
:101130004FF0004801DD18B90FE00ED140450CD347
:1011400019EB02095F4121B9404502D19F4329EAC9
:101150000209BBEB175F00D0761C2088000502D582
:101160007B48784402E07A487844193808AA30234A
:1011700002F80A30037C0AF10101002E0AF1020A8A
:1011800053546A4602DC4FF0300101E04FF0310168
:101190004FF001088DF8001002D0A6F2FF3603E0F0
:1011A00059EA470100D06B4E002D02DC2178090777
:1011B00004D54FF002082E218DF80110C4460021FD
:1011C0000BE0C7F303433F01C35C491C6D1E02F8EB
:1011D0000830052908F1010801DA002DF1DC0021B1
:1011E0000CE000EB1973491C1B786D1E082902F8EE
:1011F00008304FEA091908F1010801DA002DF0DC86
:1012000021688B0602D516E0A8F10108E04505DD4E
:1012100002EB080313F8013C302BF5D0B8F1000FB6
:1012200009DD02EB080313F8013C2E2B03D109075B
:1012300001D4A8F10108002D05DD3E2102F80810B7
:101240006D1E08F10108407C002E02F8080008F12C
:10125000010804DA2D20764202F8080002E02B2073
:1012600002F808000A214FF47A70864208F101085A
:101270000BDB96FBF0F3303302F8083096FBF0F30B
:1012800008F1010800FB136601E0642E0CDB64200A
:1012900096FBF0F3303302F8083096FBF0F308F1D8
:1012A000010800FB136601E00A2E06DB96FBF1F055
:1012B000303002F8080008F1010896FBF1F001FB5C
:1012C0001060303002F80800A16908F1010808EB4D
:1012D000050202EB0A00081AA0612078C00602D4B9
:1012E0002046FFF75AF9216A08AE01EB0A00206296
:1012F00004E0D4E9012116F8010B9047BAF1010A84
:10130000F7D22078C00602D52046FFF746F96E4690
:1013100009E016F8010B3E280FD0D4E901219047CF
:10132000206A401C2062B8F10108F2D22046FFF783
:101330004AF909B00320BDE8F08F206A28442062F2
:1013400003E0D4E90121302090476D1EEBD3F8E78C
:101350004A70000002FCFFFF10B5436913B1AFF300
:10136000008001E0FFF752F9012010BD127800F172
:1013700024010A7000224A700122EDE711684FF043
:10138000FF32E9E710B5436913B1AFF3008001E024
:10139000FFF7D4F9012010BD128800F124018284E6
:1013A0000022C2840122EDE711684FF0FF32E9E725
:1013B00070B516460C46054600F044F8036893F8ED
:1013C0000101012806D0FF2C0FD8185D68B101205B
:1013D0002C7070BDD3F807013246214603F2071383
:1013E00003442846BDE8704018474FF0FF3070BDF9
:1013F00000487047502700207546FFF7F9FFAE46BA
:1014000005006946534620F00700854618B020B510
:10141000FEF78AFFBDE820404FF000064FF00007BE
:101420004FF000084FF0000B21F00701AC46ACE88C
:10143000C009ACE8C009ACE8C009ACE8C0098D46F9
:101440007047000010B500F005F8001D10BD00BF8A
:101450003D62000000487047702700202DE9F041F0
:101460001F46044603260168072A01F4006004DBD6
:1014700008B116A505E016A503E008B115A500E022
:1014800015A521F010002060A069C01EA0610FB159
:10149000401EA0612046FFF780F84FB1D4E901213A
:1014A00038469047206A401C2062C01C206206E03B
:1014B000206AFAE7D4E9012115F8010B9047761E5E
:1014C000F8D22046FFF77FF8BDE8F0814E414E008C
:1014D0006E616E00494E4600696E66002DE9F04768
:1014E000814616468AB0354878440DC88DE80D000F
:1014F00032487844801C03AC0DC884E80D0041F6E6
:101500009B300844372190FBF1F290FBF1F5A5F1F7
:10151000800501FB12041B3C02D56442012000E05F
:101520000020DFF898A080460027FA44AAF1BE0AFE
:101530000EE0E0070AD03246684607EB4701012378
:101540000AEB810100F0DEFA8DE8070064107F1CD1
:10155000002CEED1194F7F44AE3F19E0E80715D0BB
:1015600007EB04100DF1180A90E80E008AE80E004F
:10157000C068F04201D1981908903246012306A9AB
:1015800003A800F0BFFA03AB83E807006D10641CEA
:10159000002DE3D14FF0010332466946B8F1000F48
:1015A00003A802D000F099FA01E000F0ABFAC9E913
:1015B0000001C9F808200AB0BDE8F087546D0000AA
:1015C00010B50446AFF300802046BDE81040FEF79A
:1015D0004ABE000001491820ABBEFEE7260002000B
:1015E00070475FEA400C08BF91F0000F4FEA8C2370
:1015F0004FEAC12243EA51514FEA1C5018BF00F58F
:10160000F0404FEA300018BF41F000415FEA6C5CE7
:1016100000F02980BCF1FF3F08BF40F080407047D8
:10162000130C06BF12044FF0100C4FF0000C130EF9
:1016300004BF12020CF1080C130F04BF12010CF1CD
:10164000040C930F04BF92000CF1020CD30F04BFE3
:1016500052000CF1010C11464FF00002A0F11F00E6
:10166000A0EB0C00704711F0004F08BF704731F03D
:1016700000413FF4D5AF0B0C06BF09044FF0100C2E
:101680004FF0000C0B0E04BF09020CF1080C0B0FFD
:1016900004BF09010CF1040C8B0F04BF89000CF18D
:1016A000020CCB0F04BF49000CF1010CCCF120035C
:1016B000A0EB0C0022FA03F302FA0CF241EA030158
:1016C00000F10100704720F07F4C80EA030023F016
:1016D0007F47ACEB070303F57C5300F0004003F1B8
:1016E000FF032DE980494FEA154B09B44FEA144333
:1016F00025EA0B4E24EA03480FF2042606EB1327D3
:1017000049083E785FEA320203FB0667C7F5000727
:1017100007FB06F64FEA54374FEAD64606F10206B3
:1017200007FB066CCCF1005C4FEA1C472CEA074C27
:1017300007FB06F40CFB06F504EB15464FEA96167C
:1017400034BF00204FF000404FEAD13706FB07FCC2
:101750004FEA1C4C0CFB0BF7D21B03FB0CF761EBA5
:1017600007010CFB0EF7B0EB074072EB17420CFBC6
:1017700008F734BFA2EB0742B2EB074261EB174117
:101780004FEA0C444FEA910706FB07FC4FEA1C4C5A
:101790000CFB0BF7B0EBC74072EB573203FB0CF7B7
:1017A00034BFA2EBC742B2EBC74261EB57310CFB2F
:1017B0000EF7B0EBC70072EB57720CFB08F734BFA3
:1017C000A2EBC702B2EBC70261EB5771039F4FEA6E
:1017D000816141EA921104EBCC044FEAD1374FEA20
:1017E000826206FB07FC42EA90124FEA80604FEAF1
:1017F0001C4C0CFB0BF7D21B03FB0CF761EB070136
:101800000CFB0EF7B0EB074072EB17420CFB08F72E
:1018100034BFA2EB0742B2EB074261EB17414FEA3C
:101820008C554FEA910704EB9C2406FB07FC4FEA1A
:101830001C4C0CFB0BF7B0EBC74072EB573203FBB1
:101840000CF734BFA2EBC742B2EBC74261EB573192
:101850000CFB0EF7B0EBC70072EB57720CFB08F7EE
:1018600034BFA2EBC702B2EBC70261EB577115EBB5
:101870004C254FEA816141EA92114FEA82624FEAB8
:10188000D13742EA901206FB07FC44F100044FEA0C
:1018900080604FEA1C4C0CFB0BF7D21B03FB0CF7D0
:1018A00061EB07010CFB0EF7B0EB074072EB174240
:1018B0000CFB08F734BFA2EB0742B2EB074261EB27
:1018C000174115EB1C154FEA813141EA92414FEA6D
:1018D000823242EA90424FEA80304FEA0C7644F17D
:1018E000000448EA03434EEA0B484FF0000EB2EB07
:1018F000080C71EB030724BF624639464EEB0E0E0F
:101900004FF0000B0018524149414BEB0B0BB2EB6F
:10191000080C71EB03077BF1000B24BF62463946CC
:101920004EEB0E0E4FF0000B0018524149414BEBAD
:101930000B0BB2EB080C71EB03077BF1000B24BF20
:10194000624639464EEB0E0E51EA020718BF46F0CA
:10195000010616EB0E7655F1000254F1000103D595
:10196000BDE88901BDE80088BDE88901BDE80048FF
:10197000B619524141EB0101A3F101037047808088
:101980007F7E7D7C7B7A79787776767574737271D9
:1019900071706F6E6E6D6C6C6B6A6A696868676691
:1019A00066656464636362616160605F5F5E5E5D23
:1019B0005D5C5C5B5B5A5A59595858575756565597
:1019C00055555454535352525251515050504F4FF9
:1019D0004F4E4E4D4D4D4C4C4C4B4B4B4A4A4A4949
:1019E000494948484847474747464646454545448C
:1019F0004444444343434342424242414141002B19
:101A00009C4630D477002BD01CB54FEA370703B47F
:101A10004FF010004FF01001BAF1000F06D0BCF1EA
:101A2000000FDCBF40F0080040F008014FF000005C
:101A30000FBCBDE810400BF1010BBBF1010F08BF5B
:101A40005FEA170722BF12F1010211F101014FF005
:101A5000004143F1000300F0004043EA00007047FA
:101A6000F9D35708D0E746EA064613F1400F4FEA8C
:101A700016461FDD13F1200FDFBF16430A46002173
:101A800020335B42BED0C3F1200746EA064602FA85
:101A900007F74FEA164646EA0706C3F1200722FA7F
:101AA00003F201FA07F721FA03F14FF0000342EACB
:101AB0000702A7E746EA020646EA06464FEA164646
:101AC00046EA0106BCBF46EA0646360C4FF0000364
:101AD0004FF000024FF0000194E72DE9804C9A4648
:101AE000934670B491E8380007C831EA400C48BF0B
:101AF00034EA430C03D5FFF7E6FDFFF780FFF0BCA7
:101B0000BDE8008C2DE9804C9A46934670B491E86C
:101B1000380007C810F0804F08BF13F0804F03D182
:101B200000F005F8FFF76BFFF0BCBDE8008C20F07B
:101B30007F4780EA030023F07F4C07EB0C03A3F5FB
:101B40007C5300F00040A3F1FE0392F0000F00F080
:101B5000B38095F0000F00F077802DE901494FEA3E
:101B600011404FEA144621EA004800FB06FC24EA33
:101B7000064708FB06F607FB08F800FB07F718EB1B
:101B800006484CEB164C4FEA124B18EB07484FEA4D
:101B900015464CEB174022EA0B4E0BFB06FC25EAE0
:101BA00006470EFB06F607FB0EFE0BFB07F71EEBC8
:101BB000064E4CEB164C4FF000061EEB074E4CEB5E
:101BC000174B18EB0B0840F1000018EB0E0B58EB0D
:101BD000000840F100008F1A4FF000013CBFC943DC
:101BE000661B14BFB5EB040C00213CBFC943F61BB8
:101BF0004FEA17444EEA8E0E27EA04454FEA1C4787
:101C000004FB07622CEA074C05FB07F70CFB05F603
:101C100004FB0CFC16EB074642EB174216EB0C4696
:101C200042EB1C421BEB060658EB0202414146EA1E
:101C30009E0601D5BDE80189B619524141EB01016B
:101C4000A3F10103BDE801894FEA14454FEA1147AA
:101C500024EA054621EA074C05FB07F406FB07F7D3
:101C60000CFB06F105FB0CFC11EB074144EB1744A0
:101C70004FEA124711EB0C4144EB1C4422EA074C9B
:101C800005FB07F206FB07F70CFB06F605FB0CFC51
:101C900016EB074642EB174216EB0C4642EB1C458F
:101CA0006A1854F1000148BF7047B619524141EB20
:101CB0000101A3F10103704795F0000F37D04FEAFF
:101CC00011424FEA144721EA024624EA074C02FB7C
:101CD00007F106FB07F70CFB06F402FB0CFC14EB08
:101CE000074441EB17414FEA154714EB0C4441EB15
:101CF0001C4125EA074C02FB07F506FB07F70CFB26
:101D000006F602FB0CFC16EB074645EB174516EBF7
:101D10000C4645EB1C42121951F1000148BF7047B7
:101D2000B619524141EB0101A3F1010370474FEA9B
:101D300014454FEA114724EA054621EA074C05FB02
:101D400007F106FB07F70CFB06F24FF0000605FB58
:101D50000CFC12EB074241EB174112EB0C4251EB2A
:101D60001C4148BF7047921841EB0101A3F10103E8
:101D70007047000070B5044600688168C943C90710
:101D800017D1816821F00101816001F099FB0546BE
:101D90000AE000BF01F094FB401B022804D9206830
:101DA0008068C043C00706D020688068C043C00771
:101DB000F0D0002070BDA06A40F01000A062E06A80
:101DC00040F00100E062012070BD0000F8B500267F
:101DD0000446009600688168C943C9072DD0816810
:101DE00041F001018160164816490068B0FBF1F02E
:101DF00000E0401E00900028FBD101F061FB054689
:101E000016E000BF01F05CFB401B022810D92068DF
:101E10008068C043C0070BD0A06A40F01000A062E9
:101E2000E06A40F00100E06284F824600120F8BD1F
:101E300020688068C043C007E4D10020F8BD0000DE
:101E4000FC00002040420F00DFF820B208B5864EAB
:101E5000DFF81C92DFF81CA2ABF14405287B0128B7
:101E60001DD1812000F060FC03F096F8C0EB00204B
:101E700040F6FF71B0FBF1F0C0B200F055FC6421F8
:101E8000686A05F0FDF8012870D1287A40B1012870
:101E90001CD0022830D0032874D0042871D06BE005
:101EA00000F0E0F9714F002417F1500757F82400B3
:101EB0000096030EC0F30742C0F30721C0B200F042
:101EC000F3FA641CE4B2052CF0D3C1E000F0CAF9C7
:101ED000664F002417F1640757F824000096030E9C
:101EE000C0F30742C0F30721C0B200F0DDFA641C62
:101EF000E4B2062CF0D3ABE000F0B4F95B4F002461
:101F000017F17C0757F824000096030EC0F3074230
:101F1000C0F30721C0B200F0C7FA641CE4B2052C7C
:101F2000F0D31023042222217C20CDF8009000F071
:101F3000BBFA51480090022304222B215FF050008D
:101F400000F0B2FACDF800A010231A4695F903105C
:101F500095F9020000F0A8FAE86A009047A306226B
:101F60000021642000F05BFA00F0B2FB00231A4667
:101F70001946686A04F0D8FE012004F0EDF86DE718
:101F800000E023E000F06EF9384F002417F1380725
:101F900057F824000096030EC0F30742C0F3072150
:101FA000C0B200F081FA641CE4B2062CF0D3102316
:101FB000042222217C20CDF8009000F075FA2E48F2
:101FC000022304223E2100901220B9E700F04AF9D2
:101FD000264F002417F1900757F824000096030EAF
:101FE000C0F30742C0F30721C0B200F05DFA641CE1
:101FF000E4B2042CF0D3DFF874801F4F002408F102
:10200000300800BF58F824000097030EC0F30742C1
:10201000C0F30721C0B200F047FA641CE4B2022CFE
:10202000F0D312480096001F102300781A46192199
:1020300000F03AFA9BF800006E2804D005280ED074
:102040006A7A72B101E001226A72401E8BF80000C8
:102050001023042222217C20CDF8009070E700227A
:102060006A72401CF2E70000318000085000002036
:1020700051800008680900202D80000848503A254A
:10208000640000001CB5744D744C00BF01F018FAD8
:10209000286064226946A06904F056FF01280BD02D
:1020A000207A002874D0012873D0022872D0032827
:1020B00071D0042870D0C8E06421606A04F0E0FFA9
:1020C000012864D16648296801609DF80000012854
:1020D00071D0022802D0032879D164E0207A40B17F
:1020E000012810D0022818D0032820D0042828D096
:1020F00036E094F902006E2832DC584A0523E17874
:10210000C0B2943226E094F902006E2828DC534ACB
:102110000623E178C0B2A8321CE094F902006E28D0
:102120001EDC4E4A0523E178C0B2C03212E094F9B9
:1021300002006E2814DC494A0623E178C0B27C32E2
:1021400008E094F902006E280ADC444AE178C0B243
:102150000423D43202F084FC10B9A078401DA07092
:10216000E178A07802F022FC01280ED101F0A8F954
:10217000E063E16A032910D0A26B40F2DC53821ABB
:102180009A4202D3491EE162A063E06A40B11EE0B8
:1021900024E02DE036E03FE048E00220E06216E077
:1021A0000120E07113E094F9020000280FDD401FC8
:1021B000A0700CE0FFE76079142805D8E178491F8A
:1021C000E170401D607102E0E078801CE070002347
:1021D0001A461946606A04F0A7FD38E094F9030036
:1021E000302832DA1D4AC1B20523A078943226E0A5
:1021F00094F90300302828DA184AC1B20623A078DF
:10220000A8321CE094F9030030281EDA134AC1B248
:102210000523A078C03212E094F90300302814DAC4
:102220000E4AC1B20623A0787C3208E094F903007C
:1022300030280ADA094AC1B2A0780423D43202F065
:102240007DFB10B9E078801CE070002060710120F7
:1022500003F082FF1AE70000000000200C000020BD
:102260000400002010B50021074C0A46002004EBB2
:10227000C1131A54401CC0B28028FAD3491CC9B2F9
:102280000829F3D310BD000068050020F0B50B4409
:1022900024E0044685181DE07F2C19D8002917DB9F
:1022A0003F2915DCCE1701EB56764FEAE60C0D4FB1
:1022B00026F0070607EBCC172744A1EB060E97F88C
:1022C00000C0012606FA0EF62CEA060C87F800C0BC
:1022D000641C24B2A542DFDC491C09B28B42D8DC65
:1022E000F0BD00006805002010B500204FF47A72A0
:1022F0000021491C9142FCD3401C9042F8D302F0CB
:10230000F9FE012000F0F8F9BDE81040012000F0CE
:10231000FFB970B500240646802525FA04F0304048
:1023200000D0012000F0F4F9012000F0E5F90020D0
:1023300000F0E2F9641CE4B2082CEED3012000F0B6
:10234000DBF9BDE87040002000F0D6B910B50120DF
:1023500000F0DEF9012000F0CFF9002000F0D8F9FC
:10236000BDE81040002000F0C7B910B5002000F013
:10237000CFF9012000F0C0F9BDE81040012000F0C5
:10238000C7B910B5FFF7B0FFAE2000F0CDF9D520EA
:1023900000F0CAF9802000F0C7F9A82000F0C4F9C5
:1023A0003F2000F0C1F9D32000F0BEF9002000F07A
:1023B000BBF9402000F0B8F9A12000F0B5F9C82021
:1023C00000F0B2F9DA2000F0AFF9122000F0ACF919
:1023D000812000F0A9F9CF2000F0A6F9D92000F063
:1023E000A3F9F12000F0A0F9DB2000F09DF93020E6
:1023F00000F09AF9A42000F097F9A62000F094F9D3
:102400008D2000F091F9142000F08EF9AF2000F03B
:102410008BF9FFF727FFBDE8104000F059B90FB462
:1024200070B5C0B014460D46064648AA684647999E
:10243000FDF7A0FF23466A462946304600F092F891
:1024400040B070BC5DF814FB10B50C4640F0B00015
:1024500000F06AF9102040EA141000F065F904F069
:102460000F00BDE8104000F05FB9000008B5082B70
:102470000DD0062B0AD10A4B02EB420203EB4202BB
:10248000C03A00920823062200F00EF808BD054B62
:1024900003EB0212A2F50072102300920822F3E768
:1024A000B07C0008C07600082DE9F04F1F461646A4
:1024B0000D4682460024FFF7E9FE7F1EF81707EB62
:1024C00050700121DFF898B001EBE00743E00020F5
:1024D0003DE000BF0AEB00037F2B36D8E91705EB80
:1024E0005171CA1021F00701691A002D03DA521E3A
:1024F000083112B209B202EB0409B9F1070F0ED884
:10250000099A04FB06F802440BEBC91E18F80220D6
:102510001EF803C08A404CEA020C0EF803C009F111
:102520000102072A11D80BEBC91202EB0308099A22
:1025300004FB06FC024498F880301CF80220C1F12C
:102540000801CA40134388F88030401CC0B2B04232
:10255000C0D3641CE4B2A742B9DCBDE8F08F000030
:10256000680500202DE9FF4F002483B09B4690466C
:102570002546A246DFF850919EE0100610D403983D
:102580008DF80420641C2844A4B28DF805A000B284
:102590005B460499FFF76AFF05EB0B0085B28BE001
:1025A0000620B0EB521F0ED1641CA0B28DF804209F
:1025B00018F80010002974D08DF80510401C84B262
:1025C0008DF806A03CE00E20B0EB121F16D1641C63
:1025D000A0B28DF8042018F80010002971D0401C1A
:1025E00080B28DF8051018F80010002969D08DF818
:1025F0000610401C84B28DF807A021E01E20B0EB2D
:10260000D20F1FD1641CA0B28DF8042018F800105E
:10261000002956D0401C80B28DF8051018F8001023
:1026200000294ED0401C80B28DF8061018F800101A
:10263000002946D0401C8DF8071084B28DF808A000
:10264000002609E0641CA4B236E0384601A9FDF773
:1026500061FF68B1761CB6B206EB860000EB46114E
:1026600001EB0900074619A1FDF754FF0028ECD142
:10267000BBF1080F03D0BBF1060F1DD112E006EB32
:10268000860000EB461101EB0900401D0090039805
:102690001023284400B21A460499FFF705FF1035AD
:1026A00009E00EE003980623284400B23F22049973
:1026B000FFF7DCFEAD1DADB218F80420002A7FF450
:1026C0005CAF07B0BDE8F08FEA7E000800000000B4
:1026D00070B5084D002400212046FFF7B5FE05EB3C
:1026E000C410802100F031F8641CE4B2082CF2D34D
:1026F00070BD00006805002008B1012200E0002242
:102700004FF40071014800F0D6BE0000000C0140FB
:1027100008B1012200E000224FF48071014800F06E
:10272000CABE0000000C014010B50446FFF70EFEC3
:102730007820FFF7EEFD0020FFF7EBFD2046FFF7C6
:10274000E8FDBDE81040FFF710BE70B50D46064627
:10275000FFF7FCFD7820FFF7DCFD4020FFF7D9FDF7
:10276000002404E0305DFFF7D4FD641CE4B2AC4209
:10277000F8D3BDE87040FFF7F8BDFEE70D4A10B58D
:102780000B4B116888B14FF47A746043B3FBF0F0DF
:10279000401EB0F5803F01D34FF6FF70886211688C
:1027A00040F2E730C862D06010BD0020086410BD60
:1027B00000A24A042C0C002070470000DFF81CB275
:1027C00008B5854EDFF81892DFF818A2ABF1400586
:1027D000287B01281DD1812003F006F802F0DCFBE4
:1027E000C0EB002040F6FF71B0FBF1F0C0B202F088
:1027F000FBFF6421286A04F043FC012870D1287A89
:1028000040B101281CD0022830D0032874D00428FD
:1028100071D06BE002F08AFD704F002417F154076D
:1028200057F824000096030EC0F30742C0F30721B7
:10283000C0B202F09DFE641CE4B2052CF0D3BFE0F0
:1028400002F074FD654F002417F1680757F8240063
:102850000096030EC0F30742C0F30721C0B202F096
:1028600087FE641CE4B2062CF0D3A9E002F05EFD02
:102870005A4F002417F1800757F824000096030EE2
:10288000C0F30742C0F30721C0B202F071FE641C1E
:10289000E4B2052CF0D31023042222217C20CDF8B1
:1028A000009002F065FE50480090022304222B2184
:1028B0005FF0500002F05CFECDF800A010231A4635
:1028C00095F9011095F9000002F052FEA86A0090F7
:1028D00046A306220021642002F005FE02F05CFF00
:1028E00000231A461946286A04F01EFA012003F054
:1028F00033FC6DE700E023E002F018FD374F0024C1
:1029000017F13C0757F824000096030EC0F3074266
:10291000C0F30721C0B202F02BFE641CE4B2062C07
:10292000F0D31023042222217C20CDF8009002F065
:102930001FFE2D48022304223E2100901220B9E7F9
:1029400002F0F4FC254F002417F1940757F82400F7
:102950000096030EC0F30742C0F30721C0B202F095
:1029600007FE641CE4B2042CF0D3DFF870801E4F25
:10297000002408F1340800BF58F824000097030E23
:10298000C0F30742C0F30721C0B202F0F1FD641C9E
:10299000E4B2022CF0D3009610235C469BF80000B2
:1029A0001A46192102F0E4FD20786E2804D005288B
:1029B0000DD0A97A69B101E00121A972401E2070F1
:1029C0001023042222217C20CDF8009072E7002100
:1029D000A972401CF3E70000318000084C00002081
:1029E00051800008880900202D80000848503A25B1
:1029F0006400000003480168486A002200B24A628D
:102A000070470000740C002072B6FEE706490020F3
:102A1000C8610648016941F004010161016941F0A2
:102A20004001016170470000E00D002000200240DD
:102A3000064A0021D16106490A6942F002020A6190
:102A40004861086940F0400008617047E00D0020CF
:102A500000200240044B0022DA61044A136943F06B
:102A60000103136101807047E00D00200020024047
:102A700014480022C168CB06134904D5CA6942F044
:102A80000202CA611022C3685B0705D5CB6943F017
:102A90000103CB6142F00402C369DB0707D0CB69B5
:102AA00043F00403CB61C16921F00101C161A2F5CA
:102AB0008071013901D0C2607047C16921F0010104
:102AC000C161704700200240E00D002070B505464E
:102AD00000F0F6FC0646114C09E0681C07D025B151
:102AE00000F0EEFC801BA84201D9032070BDE06815
:102AF000C007F2D1E068800601D52020E060E068E0
:102B0000C00605D4E069C00702D1E068400703D5DC
:102B1000FFF7AEFF012070BD002070BD0020024015
:102B2000DFF8B4902D4D2E4E42F2107709F1040AD1
:102B30004FF00008A9F150044FF0010B28683168EC
:102B4000401AB84209D984F80C8002F0EFFB02F079
:102B500023FEFFF787FBFFF7BBFD207BC0BB0422F2
:102B60001D49204801F00EFE99F800104846202922
:102B700009D14178012906D18178012903D199F839
:102B80000300612802D0207B38B121E084F80CB02A
:102B900028683060C4F850801AE00F490422091DEB
:102BA000114801F0EFFD9AF80010504620290FD18E
:102BB000417802290CD18178012909D19AF80300C2
:102BC000612805D184F80CB028683060C4F85480BE
:102BD000012003F0C1FAB1E75C00002000000020F2
:102BE000040000204C0D0020BC0C0020F8B500248F
:102BF000009490F824202546012A12D0012280F862
:102C000024204A681F23072A0DD20668776B521EBC
:102C100002EB820293409F430B6893401F4377630C
:102C200019E00220F8BD06680D2A0AD2376BD21FC0
:102C300002EB820293409F430B6893401F4337632C
:102C400009E0F76A0D3A02EB820293409F430B685A
:102C500093401F43F7620A68072306680A2A0AD3CB
:102C6000F7680A3A02EB420293409F438B68934015
:102C70001F43F76008E0376902EB420293409F432D
:102C80008B6893401F4337610A68102A01D0112ACC
:102C900020D1124B02689A4217D193681B0219D4B3
:102CA000936843F4000393600968102912D10C491A
:102CB0000C4A0968B1FBF2F101EB8101490000E027
:102CC000491E00910029FBD104E0816A41F02001F6
:102CD0008162012480F824502046F8BD0024014080
:102CE000FC00002040420F00806A70470068C06C02
:102CF000704700002DE9F0414FF0000704003D4609
:102D00007ED0A06A002628B9E66284F824602046B6
:102D100000F07EF82046FFF72DF8A16AC90600D41E
:102D200020B1A06A40F01000A06269E0A16A21F41D
:102D3000885141F00201A1626268E169237B0A4384
:102D400047EA43010A43A1684FF48077B94209D0AA
:102D5000012907D05FF0000194F814C0BCF1010F05
:102D600002D00AE03946F7E7F3B1A36A43F0200343
:102D7000A362E36A43F00103E3622368D3F804C06B
:102D80002CF4694C4CEA010CC3F804C021688B6830
:102D9000DFF870C003EA0C0313438B60A168B942EB
:102DA0000BD0012909D00CE0DFF85CC0A3690CEB63
:102DB00043330B4343F40061DFE7218A0D05A5F59A
:102DC00080152168CB6A23F470032B43CB62216802
:102DD00089680E4B1940914208D1E662A16A21F040
:102DE000020141F00101A162BDE8F081A06A20F07A
:102DF000020040F01000A062E06A40F00100E062D2
:102E00000120F1E7FDF7E1FF00E0FFFFFE0E1FFFED
:102E100000B585B0002100910191029103910068F5
:102E20000E49884218D10E48816941F400718161D0
:102E3000816901F400710491816941F004018161AB
:102E40008069694600F0040004900120009003208E
:102E50000190044800F03AFA05B000BD002401409A
:102E600000100240000801402DE9F84300270D46FC
:102E70000446009700F024FB804620688168C9055D
:102E800008D5A06A40F02000A06284F824700120D8
:102E9000BDE8F8834168C90503D4C06A10F4700F17
:102EA0002AD0022000F0DCFB3B490968B1FBF0F6B8
:102EB0002068036939490B424FEA61014FEAA112C8
:102EC0001FD1C3684FEA611C13EA0C0F19D10369C3
:102ED0000B4225D1C068104222D1142023E0681C87
:102EE0000AD02DB100F0ECFAA0EB0800A84203D9FB
:102EF00020680068800725D5206800688007EED527
:102F00002DE003690B4202D1C168114206D002696B
:102F100023490A4206D1C068084203D1542002E086
:102F2000292000E0FC204643009816E0681C11D0E0
:102F30002DB100F0C5FAA0EB0800A8420AD900980C
:102F4000B04207D2A06A40F00400A06284F8247066
:102F500003209DE70098401C0090B042E6D3216812
:102F60006FF012000860A06A40F40070A062206850
:102F70008068C0F3424007280CD1207B50B9A06A7A
:102F800020F48070A062A06AC00403D4A06A40F05C
:102F90000100A06200207BE7FC000020244992246D
:102FA0004992240070B5044690F8240001280DD001
:102FB000012084F824002046FEF708FF02004FF0AD
:102FC000000005D084F82400104670BD022070BDBA
:102FD000A16A40F20123994341F48071A1621F4D1F
:102FE00023681F49AB4218D10E6816F4702F14D015
:102FF000A66A46F48016A6620E68760505D5A66A0E
:1030000026F4005646F48056A662A66AF6040AD54F
:10301000E66A26F00606E66206E0A66A26F4801650
:10302000A6625E68E9E7E06284F824006FF00200BF
:10303000186020688368C3F34243072B05D1A84278
:1030400008D1096811F4702F04D0816841F480110F
:103050008160B9E7816841F4A001F9E700280140E7
:103060000424014010B590F821100022022905D057
:103070000421816380F82020012010BD01680B68C5
:1030800023F00E030B6001680B6823F001030B6053
:1030900090F84030C46B012101FA03F3636080F8BB
:1030A000211080F82020104610BD000010B590F8C7
:1030B00021100024022903D00421816301243DE072
:1030C00001680A6822F00E020A6001680A6822F0AC
:1030D00001020A601A4A0168914201D1012121E0EE
:1030E000174A1432914201D110211BE0144A2832B0
:1030F000914201D1891515E0114A3C32914201D12A
:1031000089140FE00E4A5032914202D14FF48031BF
:1031100008E00B4A6432914202D14FF4801101E081
:103120004FF08071064A083A5160012180F8211061
:10313000002180F82010416B01B18847204610BD66
:103140000800024070B5044600F0BAF90546601C5C
:1031500002D004480078044400F0B2F9401BA042B9
:10316000FAD370BDF00000202DE9F047054626484F
:103170000F460126017E01290FD0012181460176EB
:103180002868DFF888804CF25034022808D0A24624
:103190002046FFF79BFCA8B131E00220BDE8F08794
:1031A0002046FFF793FC08BB0120FFF72FFC2046C9
:1031B000FFF78CFCD8F81010064621F00401C8F87F
:1031C00010101CE04FF0FF303860AC6811E0204672
:1031D000FFF72EFC5046FFF779FCD8F810100600D8
:1031E00021F00201C8F8101001D03C6007E004F59E
:1031F0008064D5E9020100EB8120A042E7D80021DC
:1032000089F818103046C9E7E00D00200020024080
:103210000348016941F0800101610020704700000E
:10322000002002402DE9F05F07461C488846002434
:10323000017E15461E46012909D0012181460176ED
:103240004CF2503A5046FFF741FC18B122E0022000
:10325000BDE8F09F012F02D0022F00D00427D346F3
:10326000DFF83CA0220128463146FDF76FF881B215
:1032700008EB4400FFF7EEFB5846FFF727FCDAF8AF
:10328000102022F00102CAF8102018B9641CE4B220
:10329000BC42E7D3002289F81820D9E7E00D0020CE
:1032A00000200240064900200A69120607D5054A97
:1032B0004A60054A4A600969090600D5012070473D
:1032C0000020024023016745AB89EFCD2DE9F84F7F
:1032D000DFF8B8910024A9F1040B23460F2709F168
:1032E000040AABF1040EC9E00125A5402A40AA4218
:1032F0007DD1674ED1F804C0ACEB0608B44532D09E
:1033000014DCBCF1030F3AD009DCBCF1000F2AD069
:10331000BCF1010F1CD0BCF1020F31D11DE0BCF19A
:10332000110F17D0BCF1120F2AD119E0B8F5881F80
:1033300019D006DCB8F5803F15D0B8F5801F1FD135
:1033400011E0B8F5001F0ED0B8F5041F18D10AE03F
:10335000CB6815E0CB681B1D12E0CB6808330FE08B
:10336000CB680C330CE08B682BB1012B4FF00803BA
:1033700003D0456104E0042302E0056100E000237E
:10338000FF2A01D8064601E000F104064FEA840551
:1033900001D9A5F12005D6F8008007FA05FC28EA36
:1033A0000C0803FA05F548EA0508C6F800804D68E0
:1033B000ED0062D5374DAE6946F00106AE61AD69EC
:1033C00024F0030605F001050095334D06EB050CCE
:1033D000DCF80850A607360F07FA06F825EA0805B4
:1033E000DFF8B880404503D14FF0000817E044E013
:1033F000DFF8AC80404502D14FF001080FE0DFF864
:10340000A480404502D14FF0020808E0DFF8988020
:10341000404502D14FF0030801E04FF0040808FADC
:1034200006F848EA0508CCF808804D68D9F800602D
:10343000ED024D4601D5164300E096432E604D68DF
:10344000DAF80060AD02554601D5164300E0964318
:103450002E604D68DBF80060AD035D4601D5164374
:1034600000E096432E604D68DEF80060ED0375467F
:1034700001D5164300E096432E60641C0D682A4671
:10348000E5407FF431AFBDE8F88F0000080401404B
:10349000000011100010024000000140000801402F
:1034A000000C0140001001400014014080680840F9
:1034B00000D0012070470AB1016170470904FBE7A1
:1034C0000148806870470000F000002002488168D1
:1034D0000278114481607047F0000020074810B561
:1034E000016841F010010160032000F0A7F80F20EF
:1034F00000F006F800F050F8002010BD0020024057
:1035000030B505461F4887B0C16941F00401C1616B
:10351000C06906A900F00400009001A800F0FEF9BF
:103520000498B0B100F01AFA40001749174AB0FBEE
:10353000F1F11748491E0260416040F2E732002174
:10354000C0E903218160816100F03EFC040003D0EA
:1035500015E000F003FAE8E70D4800F063FC040012
:103560000DD11E2000F03CF8102D07D20022294674
:103570001E2000F043F80748056000E0012407B072
:10358000204630BD0010024040420F0000080040BD
:10359000940D0020F40000200F4808B5816941F027
:1035A00001018161816901F001010091C16941F06E
:1035B0008051C161C069002200F0805000900F214D
:1035C000901E00F01BF80548416821F0E06141F0D1
:1035D0000071416008BD0000001002400000014081
:1035E000002809DB00F01F02012191404009800002
:1035F00000F1E020C0F8001170470000F0B40E4B5D
:103600001B680C46C3F30223C3F10705042D00D940
:103610000425191D072901D2002300E0DB1E012625
:1036200006FA05F1491E214099409E40761E16403B
:103630003143F0BC02F042BC0CED00E0064900F062
:10364000070208684FF6FF03184040EA0220034AC9
:1036500010430860704700000CED00E00000FA0520
:1036600010B501460020234C012922D0022939D06F
:1036700010291DD161682268D20119D51E48C1F3F5
:103680008342C903805C0AD561681B4AC1F340418B
:10369000921E515C194AB2FBF1F1484301E018490E
:1036A00048436168490203D440000321B0FBF1F0B4
:1036B00010BD226AC2F30121012903D1920701D56D
:1036C000C80310BD022905D1626A920702D549F6E6
:1036D000404010BD0329FCD121688903F9D54FF280
:1036E000244010BD00F04AF96168C1F38131491CE2
:1036F0004900DBE7001002403481000800127A0024
:1037000000093D002DE9F84305460078354CC00717
:1037100054D0E0690026C00008D4E06940F0805031
:10372000E061E069012600F0805000902E480168B9
:10373000C90512D40168804641F480710160FFF729
:10374000BFFE074605E000BFFFF7BAFEC01B6428B6
:1037500023D8D8F80000C005F6D5206A10F44070D0
:1037600021D0A98801F4407181421CD0206A1F49F0
:10377000012220F440700A6000220A602062C00723
:1037800011D0FFF79DFE074641F2883808E000BFE0
:10379000FFF796FEC11B414502D90320BDE8F8831F
:1037A000206A8007F4D5206A696820F440700843D5
:1037B00020621EB1E06920F08050E0612878800727
:1037C00005D56068A96820F4404008436060287807
:1037D000C00605D56068E96820F480000843606091
:1037E0000020DBE70010024000700040400442422D
:1037F0002DE9F0470F46050061D0434E306800F0D8
:103800000700B84209D2306820F007003843306022
:10381000306800F00700B84251D128683B4C81075E
:1038200012D5400703D5606840F4E06060602878F6
:10383000000703D5606840F4605060606068A96864
:1038400020F0F000084360602878C00728D068683E
:10385000012810D02168022810D0890700292EDA0B
:10386000616821F0030101436160FFF729FE804692
:1038700041F288390DE021688903EFE78901EDE71E
:10388000FFF71EFEA0EB0801494502D90320BDE861
:10389000F0876068696800F00C00B0EB810FEFD131
:1038A000306800F00700B8420BD9306820F00700FC
:1038B00038433060306800F00700B84201D0012082
:1038C000E5E72878400705D56068E96820F4E060FE
:1038D000084360602878000706D56068296920F4ED
:1038E000605040EAC100606000F058F86168084A22
:1038F000C1F30311515CC8400649086006480068DE
:10390000FFF7FEFD0020C2E7002002400010024049
:1039100044810008FC000020F40000200F22026017
:103920000C4A536803F003034360536803F0F00349
:103930008360536803F4E063C36052684FF4E0634C
:1039400003EAD20202610448006800F00700086040
:103950007047000000100240002002400448054962
:1039600000684968044AC1F30221515CC8407047AD
:10397000FC00002000100240548100080448054962
:1039800000684968044AC1F3C221515CC8407047CD
:10399000FC00002000100240548100080E4A5168CB
:1039A0000E4801F00C03042B11D0082B0FD10C484A
:1039B000C1F38343C903C05C0AD55168084AC1F307
:1039C0004041921E515C054A5043B0FBF1F07047F4
:1039D00004494843704700000010024000127A007A
:1039E0002281000800093D002DE9F84F040070D045
:1039F0002078C04DC00749D06868C0F38100012815
:103A000007D06868C0F38100022809D16868C00344
:103A100006D52868800339D560680028E7D035E0EE
:103A20006068B0F5803F0BD010B1B0F5A02F11D079
:103A3000286820F480302860286820F4802002E084
:103A4000286840F480302860606890B1FFF738FD46
:103A500006460AE0286840F480202860F0E700BFAE
:103A6000FFF72EFD801B642873D828688003F7D5E4
:103A70000CE0FFF725FD064605E000BFFFF720FD3F
:103A8000801B6428F0D828688003F7D420789A4EE9
:103A900080074FF001094FF0000839D5686810F031
:103AA0000C0F07D06868C0F38100022809D168684C
:103AB000C00306D42868800714D52069012808D1DE
:103AC00010E02069B0B1C6F80090FFF7F9FC074696
:103AD00005E00AE1FFF7F4FCC01B0228C4D82868FF
:103AE0008007F7D52868616920F0F80040EAC10036
:103AF00028600DE0C6F80080FFF7E2FC074604E00E
:103B0000FFF7DEFCC01B022823D828688007F7D403
:103B1000207800072CD57948A169D9B1C0F8009068
:103B2000FFF7CEFC074604E0FFF7CAFCC01B0228E3
:103B30000FD8686A8007F7D571484FF4FA510068CA
:103B4000B0FBF1F0009000BF0098411E0091FAD246
:103B50000EE080E0C0F80080FFF7B2FC074604E00A
:103B6000FFF7AEFCC01B022875D8686A8007F7D43F
:103B70002078400760D5E8690027C00008D4E869CC
:103B800040F08050E861E869012700F08050009023
:103B90005C480168C90513D40168834641F480710B
:103BA0000160FFF78DFC824606E000BFFFF788FC4E
:103BB000A0EB0A0064284ED8DBF80000C005F5D55C
:103BC000E06801280AD008B1052813D0286A20F03F
:103BD00001002862286A20F0040002E0286A40F010
:103BE00001002862E06841F2883B98B1FFF768FC69
:103BF00082460BE0286A40F004002862EEE700BF2E
:103C0000FFF75EFCA0EB0A0159455AD8286A8007E5
:103C1000F6D50CE0FFF754FC824605E0FFF750FCB8
:103C2000A0EB0A0159454CD8286A8007F6D41FB189
:103C3000E86920F08050E861E06988B36968C1F301
:103C40008101022944D00228C6F8608004D0FFF721
:103C500037FC044638E034E0FFF732FC074604E066
:103C6000FFF72EFCC01B02282BD828688001F7D450
:103C7000206AB0F5803F05D16868A16820F4003063
:103C800008436860D4E908010843696821F47411A5
:103C900008436860C6F86090FFF712FC044606E02F
:103CA00025E000BFFFF70CFC001B022809D828689C
:103CB0008001F7D51BE000BFFFF702FC001B0228C4
:103CC00002D90320BDE8F88F28688001F4D40EE003
:103CD0000128F7D06868226A00F48031914204D14B
:103CE000616A00F47010884201D00120EAE70020E8
:103CF000E8E7000000100240000042428004424217
:103D0000FC000020007000407047704710B590F82C
:103D10003C20012A22D0012280F83C20CA688C680D
:103D200022F4407222434C6822F4806222430C68E1
:103D300022F4006222430C6922F4805222434C692F
:103D400022F400522243C969002322F480420A432C
:103D500001684A6480F83C30002010BD022010BD8C
:103D600070B590F83C20012A26D0012480F83C4010
:103D7000022280F83D2003685A689D6822F0700690
:103D80000A6832435A600D4B02689A4208D0B2F179
:103D9000804F05D00A4B9A4202D00A4B9A4204D176
:103DA000496825F080031943916080F83D40002167
:103DB00080F83C10084670BD022070BD002C014008
:103DC000000400400008004010B5040003D094F83F
:103DD0003D0010B107E0012010BD002084F83C0038
:103DE000204600F01EF8022084F83D00211D2068C6
:103DF00001F0CCFD012084F8460084F83E0084F8F0
:103E00003F0084F8400084F8410084F8420084F8C0
:103E1000430084F8440084F8450084F83D00002005
:103E200010BD704790F83D10012901D00120704766
:103E3000022180F83D100168CA6842F00102CA60A0
:103E400000680B49884208D0B0F1804F05D009497D
:103E5000884202D00849884204D1816801F00701F4
:103E6000062903D0016841F001010160002070477C
:103E7000002C014000040040000800402DE9F04102
:103E80000D46040003D094F83D0018B108E001206D
:103E9000BDE8F081002084F83C00204600F040F8A6
:103EA000022084F83D002068816844F207029143B3
:103EB0008160211D206801F069FD22689068916988
:103EC000166A2B68AF69034340F20330814341EA2D
:103ED0000721A868EF6908434FF6FC418843E96869
:103EE00040EA0720014328692F6A000140EA0730B1
:103EF000084369686D6926F0220646EA05152943DC
:103F000093602268906154F8460B0162012004F826
:103F10001F09E0752076E0762077A0750020B7E7CE
:103F200000B585B0002100910191029103910068D4
:103F30000D49884216D10D48C16941F00201C161A5
:103F4000C16901F002010491816941F004018161BC
:103F50008069694600F004000490C0200090044885
:103F6000FFF7B4F905B000BD0004004000100240A6
:103F70000008014070B590F83E60044690F83F504C
:103F800090F8423090F84320022021B104290ED04D
:103F9000012E1BD114E0012E18D1012B16D184F86B
:103FA0003E0084F8420001220021206820E0012D1B
:103FB0000CD1012A0AD184F83F0084F8430014E0B0
:103FC000012D03D1012B01D1012A01D0012070BDA7
:103FD00084F83E0084F83F0084F8420084F84300EF
:103FE00001220021206801F00DFD0122042120683A
:103FF00001F008FD2068016841F001010160002026
:1040000070BD70472DE9F04104460068C668056937
:104010004FF00007A90713D5B10711D5F91E0161AB
:1040200001202077206880698007204602D0FFF7B2
:10403000E8FF04E000F0A4F8204600F049F92777F3
:10404000680716D5700714D521686FF00400086161
:10405000022020772068806910F4407F204602D03B
:10406000FFF7CFFF04E000F08BF8204600F030F9B6
:104070002777280715D5300713D521686FF008007A
:104080000861042020772068C0698007204602D09C
:10409000FFF7B7FF04E000F073F8204600F018F9CE
:1040A0002777E80616D5F00614D521686FF01000C2
:1040B0000861082020772068C06910F4407F2046FE
:1040C00002D0FFF79EFF04E000F05AF8204600F00F
:1040D000FFF82777E80708D0F00706D021686FF0CF
:1040E00001000861204600F043F9280608D5300693
:1040F00006D521686FF0800008612046FFF704FEB6
:10410000680608D5700606D521686FF04000086182
:10411000204600F037F9A8060AD5B00608D5216870
:104120006FF0200008612046BDE8F041FFF7EDBDCB
:10413000BDE8F08100B585B00021009101910291A8
:10414000039100680B49884212D10B48816941F004
:10415000040181618069694600F0040004904FF415
:10416000006000900220019003900448FFF7AEF831
:1041700005B000BD002C01400010024000080140C5
:10418000704770B5044690F83C0000260D460128A3
:104190000FD0012084F83C006AB1042A1DD0082AFF
:1041A0002FD00C2A3FD00126002084F83C00304656
:1041B00070BD022070BD206801F032FC206881696A
:1041C00041F0080181612068816921F00401816169
:1041D000206881692A69114311E0206801F048FCD8
:1041E0002068816941F4006181612068816921F45E
:1041F00080618161206881692A6941EA02218161C7
:10420000D2E7206801F060FC2068C16941F0080134
:10421000C1612068C16921F00401C1612068C169E0
:104220002A69114311E0206801F07AFC2068C16915
:1042300041F40061C1612068C16921F48061C161FC
:104240002068C1692A6941EA0221C161ACE710B561
:10425000040003D094F83D0010B107E0012010BD28
:10426000002084F83C00204600F01EF8022084F86C
:104270003D00211D206801F089FB012084F84600E3
:1042800084F83E0084F83F0084F8400084F8410040
:1042900084F8420084F8430084F8440084F8450020
:1042A00084F83D00002010BD08B50068064988422A
:1042B00008D10648816941F400618161806900F498
:1042C0000060009008BD0000002C0140001002407A
:1042D0007047000010B50446022249B104290ED0EF
:1042E000082913D094F84100012816D0012010BDF0
:1042F00094F83E000128F9D184F83E200FE094F8AC
:104300003F000128F2D184F83F2008E094F84000F3
:104310000128EBD184F8402001E084F841200122FB
:10432000206801F06FFB0F492068884203D1426C7E
:1043300042F4004242642068884208D0B0F1804FC5
:1043400005D00949884202D00849884204D18168D1
:1043500001F00701062903D0016841F00101016065
:10436000002010BD002C0140000400400008004067
:1043700000680349884201D1FFF7A8B870470000E0
:10438000000800407047704770470000F8B50168AA
:1043900004460868CA684B6910F00F0F4FF000051B
:1043A00059D003F0010602F49077374365D0C10776
:1043B00005D0D10503D5616C41F00101616441076D
:1043C00005D5D90703D0616C41F002016164810712
:1043D00005D5D90703D0616C41F004016164010780
:1043E00007D502F02001314303D0616C41F0080190
:1043F0006164616C00293AD0800604D5900602D52C
:10440000204601F0DEFB20684069616CC0F380103B
:10441000090700D460B3204601F0ACFB2068406976
:10442000400621D52068143050E8001F21F04001DB
:1044300040E80012002AF5D1E06BA8B16D49416354
:10444000E06BFEF733FE002811D0E06B416B01B04A
:10445000BDE8F040084783060FD593060DD52046EA
:10446000BDE8F84001F0ADBB2046FFF78DFFF8BD79
:104470002046FFF789FF6564F8BD266B2023012ED7
:104480007CD1C6067AD5D60678D5086848680090EB
:1044900048694FF00206400640D5E16B0868406865
:1044A0000004000CE8D0A28D8242E5D9E08588693D
:1044B00020282DD020680C3050E8001F21F4807196
:1044C00040E80012002AF5D12068143050E8001F9F
:1044D00021F0010140E80012002AF5D120681430D3
:1044E00050E8001F21F0400140E80012002AF5D1F9
:1044F00084F84230256320680C3050E8001F21F01A
:10450000100140E80012002AF5D1E06BFEF7AAFD89
:104510006663A08DE18D401A81B22AE0A08DE18D05
:10452000401A81B2E08D0028A6D00029A4D02268CC
:104530000C3252E8000F20F4907042E80007002F80
:10454000F5D12068143050E8002F22F0010240E835
:104550000027002FF5D184F84230256320680C3005
:1045600050E8002F22F0100240E80023002BF5D184
:1045700066632046FFF707FFF8BDFFE705062BD56A
:10458000150629D594F841002128F5D1A068B0F589
:10459000805F01D12069B0B1206A411C216221688D
:1045A00000784860E08C401E0004000CE084E3D1F9
:1045B0002068C16821F08001C1602068C16841F0B5
:1045C0004001C160D8E7206A0088C0F30800486055
:1045D000206A801C2062E5E74006CDD55006CBD589
:1045E000CA68204622F04002CA6084F8413000F0D8
:1045F000A3F9C1E7655B000870B5040004D094F826
:104600004100002510B106E0012070BD84F8405043
:10461000204600F023F8242084F841002068C16877
:1046200021F40051C160204601F02CFB2068016993
:1046300021F4904101612068416921F02A01416122
:104640002068C16841F40051C1606564202084F88D
:10465000410084F842006563002070BDF0B585B06C
:104660000024009401940294039403683F4F0220B5
:104670003F4903223F4D4602BB4225D18B6943F49B
:1046800080438B618B6903F4804304938B6943F00F
:1046900004038B618969039201F004010491010212
:1046A000CDE9001069462846FEF710FECDE900640A
:1046B000694628460294FEF709FE002205212520BE
:1046C000FEF79CFF25204DE02B4FBB4221D1CB694B
:1046D00043F40033CB61CB6903F4003304938B695B
:1046E00043F004038B618969039201F00401049192
:1046F0000421CDE9001069462846FEF7E7FD0820B1
:10470000CDE90004694628460294FEF7DFFD05B0B6
:10471000F0BD1A4DAB42FAD1CB6943F48023CB6193
:10472000CB6903F4802304938B6943F008038B6106
:104730008969134D01F00801CDE90321CDE900603D
:1047400069462846FEF7C2FDE814CDE90004694633
:1047500028460294FEF7BAFD002205212720FEF725
:104760004DFF2720FEF73CFFD1E700000038014055
:104770000010024000080140004400400048004092
:10478000000C014090F84230202B01D002207047ED
:1047900021B11AB10023036301F0D0BA01207047A0
:1047A0003EB50021009100683349344D4FF08054EC
:1047B00088422ED132480178202920D14178012920
:1047C0001DD182782F482E49042A0068C97804D068
:1047D000062A06D0052A08D011E061290FD103214D
:1047E00006E061290BD1022102E0612907D10121F4
:1047F0008DF8041000236A4601A902F045FB04224B
:104800001F49214831E02C60BFF34F8FBFF36F8FFA
:104810003EBD1E498842FBD11D480178202920D188
:10482000417802291DD182781A481949042A006862
:10483000C97804D0062A06D0052A08D011E06129DB
:104840000FD1042106E061290BD1052102E0612985
:1048500007D106218DF8041000236A4601A902F051
:1048600013FB094804220A499038FFF78BFF009890
:104870000028C8D13EBD00000048004004ED00E023
:104880005C000020240000204C0D00200038014076
:1048900060000020280000202DE9F843044690F82D
:1048A0004100984616460D46202802D00220BDE859
:1048B000F88385B17EB100206064212084F8410036
:1048C000FEF7FEFDA6848146E684A0682027B0F5A9
:1048D000805F02D003E00120E9E7206910B12E4695
:1048E00000250EE000260CE08021204601F041FA70
:1048F000A8B9C6B116F8010B21684860E08C401ECB
:10490000E084E08C4B464FF00002CDF80080002898
:10491000EAD14FF04001204601F02BFA40B184F873
:1049200041700320C3E735F8020BC0F30800E3E74A
:1049300084F841700020BAE77047FEE7F0B5441CE8
:104940000830C6B218480931C9B2007AE5B2042865
:104950000ED11548403044788C4209D3641E8C42F5
:1049600006DC0478B44203D280782044A84213D8ED
:10497000002015E002EB80042468C4F307278F426F
:104980000CD37F1E8F4209DCE7B2B74206D2C4F3D4
:1049900007443C44AC4201D90120F0BD401CC0B2E8
:1049A0009842E7D30020F0BD0C000020F0B501F1E3
:1049B0000902D3B200F11002D4B2284A127A9AB393
:1049C000012A49D0022A04D0032A18D0042A2CD064
:1049D00042E0224E0022143656F82250C5F3072733
:1049E000FF1E9F4206DD192904D9EDB2A54201D26E
:1049F00085422BD8521C12F0FF02EDD02CE0174E4E
:104A00000022103656F82250C5F30727FF1E9F429A
:104A100006DD2A2904D9EDB2A54201D2854215D876
:104A2000521C12F0FF02EDD016E00C4E002274363C
:104A300056F82250C5F30727FF1E9F4208DD2129A3
:104A400006D9EDB2A54203D2854201D90120F0BDBD
:104A5000521CD2B2022AEBD30020F0BD0C00002081
:104A6000F0B501F10804E6B24C1CE5B200F1100407
:104A7000E7B22E2904D90E2802D9001D142810D31C
:104A8000002012E002EB80010C68C4F3072101F161
:104A9000080CAC4507D90A31B14204D8E1B2B94299
:104AA00001D20120F0BD401CC0B29842EAD30020E0
:104AB000F0BD00001CB50027DFF868829A4C3D4627
:104AC0004FF0020A4FF0010B4FF003093E46207AE7
:104AD000052801D017B10DE10127B8E094F90000D5
:104AE0000E307C280EDD94F9010022280ADD84F8BE
:104AF0000BB0C4F82890C4F82C90BDB9A06C401C31
:104B0000A06412E094F902000E307C280EDD94F9C6
:104B1000030022280ADD84F80BA0C4F82890C4F80A
:104B20002C901DB9E06C401CE0640125A07950B1C7
:104B300084F80BA0C4F82890C4F82C90A671E06CFF
:104B4000401CE06446E0E07950B184F80BB0C4F852
:104B50002890C4F82C90E671A06C401CA06405E07D
:104B6000E07A012802D0022834D0C3E000F0DEFB56
:104B7000207A40B1012808D0022808D0032808D0A4
:104B8000042808D00FE069A306E06BA304E06DA33E
:104B900002E06FA300E071A3062214212C2000F094
:104BA000A2FC00F0F9FDFDF75DFB207A40B1012881
:104BB00008D0022808D0032808D0042808D043E0F1
:104BC0005AA33AE05CA338E05EA336E060A334E089
:104BD00062A332E000F0AAFB207A40B1012808D09D
:104BE000022808D0032808D0042808D00FE05EA3CC
:104BF00006E060A304E062A302E064A300E066A311
:104C0000062214212C2000F06EFC00F0C5FDFDF7FB
:104C100029FB207A40B1012808D0022808D00328B7
:104C200008D0042808D00FE04FA306E051A304E009
:104C300053A302E055A300E057A3062214212C2021
:104C4000FDF7EDFBFDF744FD207A052852D1FDF775
:104C500009FB54A3062214212E20FDF7E0FBD4E922
:104C60001201CDE9000152A3062228212E20FDF7D2
:104C7000D6FBFDF72DFD00F059FB4AA306221421B7
:104C80002E2000F030FCD4E91201CDE9000148A348
:104C9000062228212E2000F026FC00F07DFDD4E91C
:104CA0001201884210DDD8F800000090207A00F14F
:104CB00001002072BDF8000000F1010080B2ADF8E3
:104CC0000000BDF8021010E014DAD8F800000090DF
:104CD000207A00F101002072BDF8020000F101000D
:104CE00081B2ADF80210BDF8000001F089F8684605
:104CF00000F0D0FDE07A012801D002280DD140F269
:104D0000DC50FEF71FFA207A0025401C2072E67264
:104D100026702E206070A670E070012001F01CFA51
:104D2000D5E6000000FC00080C00002052312050A5
:104D30003157494E21000000523220503157494E20
:104D400021000000523320503157494E210000000D
:104D5000523420503157494E210000005235205026
:104D60003157494E21000000523120503257494EF0
:104D700021000000523220503257494E21000000DD
:104D8000523320503257494E2100000052342050F7
:104D90003257494E21000000523520503257494EBB
:104DA0002100000047616D654F76657200000000CC
:104DB000202564203A202564000000001CB5734DB6
:104DC000734C00BFFEF77CFB286064226946E069F3
:104DD00002F0BAF801280BD0207A002874D00128FC
:104DE00073D0022872D0032871D0042870D0C7E095
:104DF0006421206A02F044F9012864D165492868D9
:104E000008609DF80000042869D0052802D0062813
:104E100078D16BE0207A40B1012810D0022818D058
:104E2000032820D0042828D036E094F900006E280A
:104E300032DC574A05236178C0B2943226E094F9F7
:104E400000006E2828DC524A06236178C0B2A832DE
:104E50001CE094F900006E281EDC4D4A05236178A1
:104E6000C0B2C03212E094F900006E2814DC484A47
:104E700006236178C0B27C3208E094F900006E2805
:104E80000ADC434A6178C0B20423D432FFF7E8FD5C
:104E900010B92078401D207061782078FFF786FDDA
:104EA00001280ED1FEF70CFB6063A16A032910D024
:104EB000226B40F2DC53821A9A4202D3491EA1624D
:104EC0002063A06A40B11DE023E02CE035E03EE025
:104ED00047E00220A06215E00120A07112E094F9E1
:104EE000000000280EDD401F20700BE02079142800
:104EF00005D86178491F6170401D207102E060781B
:104F0000801C607000231A461946206A01F00CFFCD
:104F100038E094F90100302832DA1D4AC1B2052385
:104F20002078943226E094F90100302828DA184AD3
:104F3000C1B206232078A8321CE094F90100302881
:104F40001EDA134AC1B205232078C03212E094F968
:104F50000100302814DA0E4AC1B2062320787C32D0
:104F600008E094F9010030280ADA094AC1B2207831
:104F70000423D432FFF7E2FC10B96078801C607023
:104F800000202071012001F0E7F81BE7000000205D
:104F90000C0000200400002010B50948FEF702F8BC
:104FA0000A210748FDF760FF0548FDF79DFE8005D3
:104FB00004D50348FDF79AFE80B210BD002010BD55
:104FC000FC0B0020014909680160704700FC0008E3
:104FD0003EB5002410480094019402940D49846069
:104FE000016004730475012505614FF4602144607C
:104FF000C161FDF77FFE08B1FDF706FDCDE9004573
:10500000694605480294FDF7F1FD002801D0FDF73F
:10501000FBFC3EBD00240140FC0B002010B5B2B0EB
:10502000FEF74EFA314C2063012001F00DFE2062A4
:1050300000220821042001F012FEE0610022082174
:10504000042001F00CFEA061012001F0FDFD606272
:105050001C2227496846FBF703FA0021684601F045
:1050600087F82349A0651C221C3107A8FBF7F8F933
:10507000002107A801F07CF81D49E0651C223831A9
:105080000EA8FBF7EDF900210EA801F071F8184900
:1050900020661C22543115A8FBF7E2F9002115A85F
:1050A00001F066F8124960661C2270311CA8FBF7FB
:1050B000D7F900211CA801F05BF80D49A0661C225D
:1050C0008C3123A8FBF7CCF9002123A801F050F87C
:1050D0000749E0661C22A8312AA8FBF7C1F9002184
:1050E0002AA801F045F8206732B010BD0C0000205E
:1050F0005C800008F0B585B000241C480094019441
:1051000002940394816941F020018161816901F079
:1051100020010491816941F004018161816901F0FC
:1051200004010491816941F0080181618069104F97
:1051300000F008004FF470760490012231463846A2
:10514000FEF7B9F9B81402258DE8310069463846F2
:10515000FEF7BCF801AA1120009682E831006946EA
:105160003846FEF7B3F805B0F0BD0000001002406D
:10517000000C014010B592B000240F941C2108A827
:105180001094FBF79FF920216846FBF79BF9204814
:105190001E4901604721C0E9011440F2E731C0E92E
:1051A00003148021C0E90541FFF751F808B1FDF76C
:1051B0002BFC0F940FA916481094FEF7D1FD08B1EF
:1051C000FDF722FC6020CDE908040A940C940D94AC
:1051D0000C2208A90E480E94FEF7D3FF08B1FDF784
:1051E00013FC00944FF40050CDE904400294019464
:1051F0000394694606480794FEF788FD08B1FDF759
:1052000003FC0348FEF796FF12B010BD002C0140CE
:105210002C0C002010B58CB024216846FBF752F905
:1052200000241648099414490A94C0E900144FF662
:10523000FF71C0E90241046184610320CDE90004EB
:105240000120CDE902040494CDE9054007946946A4
:105250000A480894FEF712FE08B1FDF7D5FB099441
:1052600009A906480A94FEF77BFD002801D0FDF746
:10527000CBFB0CB010BD000000040040740C0020FB
:105280000C4810B50A4901604FF4165141600021E5
:1052900081600C22C160C0E904128161C161FFF725
:1052A000ABF9002803D0BDE81040FDF7ADBB10BD41
:1052B00000380140BC0C00200C4810B50A490160C0
:1052C0004FF4E1314160002181600C22C160C0E9EE
:1052D00004128161C161FFF78FF9002803D0BDE896
:1052E0001040FDF791BB10BD00440040040D0020AC
:1052F0000C4810B50A4901604FF416514160002175
:1053000081600C22C160C0E904128161C161FFF7B4
:1053100073F9002803D0BDE81040FDF775BB10BD40
:10532000004800404C0D0020FEE7FEE710B50021CC
:10533000074C0A46002004EBC1131A54401CC0B2AB
:105340008028FAD3491CC9B20829F3D310BD000044
:1053500068010020F0B50B4424E0044685181DE0E8
:105360007F2C19D8002917DB3F2915DCCE1701EB5C
:1053700056764FEAE60C0D4F26F0070607EBCC17E2
:105380002744A1EB060E97F800C0012606FA0EF698
:105390002CEA060C87F800C0641C24B2A542DFDCAE
:1053A000491C09B28B42D8DCF0BD00006801002026
:1053B00010B500204FF47A720021491C9142FCD3B1
:1053C000401C9042F8D3FFF795FE012000F0F8F959
:1053D000BDE81040012000F0FDB970B5002406467C
:1053E000802525FA04F0304000D0012000F0F2F9C9
:1053F000012000F0E5F9002000F0E2F9641CE4B2BD
:10540000082CEED3012000F0DBF9BDE8704000204D
:1054100000F0D6B910B5012000F0DCF9012000F051
:10542000CFF9002000F0D6F9BDE81040002000F0D0
:10543000C7B910B5002000F0CDF9012000F0C0F987
:10544000BDE81040012000F0C5B910B5FFF7B0FF6E
:10545000AE2000F0C9F9D52000F0C6F9802000F098
:10546000C3F9A82000F0C0F93F2000F0BDF9D32017
:1054700000F0BAF9002000F0B7F9402000F0B4F9CC
:10548000A12000F0B1F9C82000F0AEF9DA2000F058
:10549000ABF9122000F0A8F9812000F0A5F9CF2087
:1054A00000F0A2F9D92000F09FF9F12000F09CF95A
:1054B000DB2000F099F9302000F096F9A42000F0EC
:1054C00093F9A62000F090F98D2000F08DF91420BA
:1054D00000F08AF9AF2000F087F9FFF727FFBDE859
:1054E000104000F059B90FB470B5C0B014460D4665
:1054F000064648AA68464799FAF73CFF23466A469B
:105500002946304600F092F840B070BC5DF814FBBC
:1055100010B50C4640F0B00000F066F9102040EAEB
:10552000141000F061F904F00F00BDE8104000F025
:105530005BB9000008B5082B0DD0062B0AD10A4B29
:1055400002EB420203EB4202C03A00920823062219
:1055500000F00EF808BD054B03EB0212A2F5007235
:10556000102300920822F3E7B07C0008C076000800
:105570002DE9F04F1F4616460D4682460024FFF7E0
:10558000E9FE7F1EF81707EB50700121DFF898B095
:1055900001EBE00743E000203DE000BF0AEB000321
:1055A0007F2B36D8E91705EB5171CA1021F007019E
:1055B000691A002D03DA521E083112B209B202EB49
:1055C0000409B9F1070F0ED8099A04FB06F8024442
:1055D0000BEBC91E18F802201EF803C08A404CEAE3
:1055E000020C0EF803C009F10102072A11D80BEBD7
:1055F000C91202EB0308099A04FB06FC024498F85E
:1056000080301CF80220C1F10801CA40134388F819
:105610008030401CC0B2B042C0D3641CE4B2A74288
:10562000B9DCBDE8F08F0000680100202DE9FF4FD4
:10563000002483B09B4690462546A246DFF8509151
:105640009EE0100610D403988DF80420641C2844B2
:10565000A4B28DF805A000B25B460499FFF76AFF7B
:1056600005EB0B0085B28BE00620B0EB521F0ED18C
:10567000641CA0B28DF8042018F80010002974D022
:105680008DF80510401C84B28DF806A03CE00E2079
:10569000B0EB121F16D1641CA0B28DF8042018F8CC
:1056A0000010002971D0401C80B28DF8051018F848
:1056B0000010002969D08DF80610401C84B28DF8C6
:1056C00007A021E01E20B0EBD20F1FD1641CA0B2B6
:1056D0008DF8042018F80010002956D0401C80B224
:1056E0008DF8051018F8001000294ED0401C80B22B
:1056F0008DF8061018F80010002946D0401C8DF8CF
:10570000071084B28DF808A0002609E0641CA4B23A
:1057100036E0384601A9FAF7FDFE68B1761CB6B24C
:1057200006EB860000EB461101EB0900074619A1C4
:10573000FAF7F0FE0028ECD1BBF1080F03D0BBF163
:10574000060F1DD112E006EB860000EB461101EBBF
:105750000900401D009003981023284400B21A4607
:105760000499FFF705FF103509E00EE003980623C2
:10577000284400B23F220499FFF7DCFEAD1DADB214
:1057800018F80420002A7FF45CAF07B0BDE8F08F62
:10579000EA7E00080000000070B5084D00240021DA
:1057A0002046FFF7B5FE05EBC410802100F02DF870
:1057B000641CE4B2082CF2D370BD00006801002024
:1057C00008B1012200E0002240210148FDF773BE2C
:1057D000000C014008B1012200E0002280210148B4
:1057E000FDF769BE000C014010B50446FFF712FE3C
:1057F0007820FFF7F2FD0020FFF7EFFD2046FFF7CE
:10580000ECFDBDE81040FFF714BE70B50D4606462E
:10581000FFF700FE7820FFF7E0FD4020FFF7DDFDF9
:10582000002404E0305DFFF7D8FD641CE4B2AC4214
:10583000F8D3BDE87040FFF7FCBD00006426134CB0
:10584000134DB7004FF41678E089642800D9E6813B
:105850002968E0890864FDF7CDF8E1890844E08112
:10586000C820FCF78BFF322000F076FC3846FCF7AE
:1058700085FF322000F070FC4046FCF77FFF3220AD
:1058800000F06AFC012000F067FCDDE70C0000205E
:105890002C0C002070B586B00546002000900D4EFF
:1058A0000120CDE90260FDF7FDFC04A96846FDF783
:1058B0005BFC002424F001002A5A0023A1190120D6
:1058C000FDF7B0FCA41CA4B2042CF3D3FDF7A0FC9C
:1058D00006B070BD00FC000810B5502080F31188A0
:1058E000BFF34F8FBFF36F8F01F026FD18B104494E
:1058F0004FF080500860002080F3118810BD000038
:1059000004ED00E030B593B028216846FAF7DAFDDF
:1059100014210AA8FAF7D6FD002501200F9510954D
:105920001195010412958DE8230004904FF4E010C6
:10593000CDE90810022407946846FEF755F808B12F
:1059400072B6FEE70AA90F2081E831004FF48060AB
:10595000CDE90D0502210AA8FDF74AFF08B172B68C
:10596000FEE74FF4004011900F940FA8FDF7CAFE18
:10597000002801D072B6FEE713B030BD70470000BA
:105980000148FEF73FBB0000940D0020F0B502680F
:10599000194B1A4C1A4D4FF08047984205D0B84227
:1059A00003D0A04201D0A84203D122F070064A6879
:1059B0003243984205D0B84203D0A04201D0A84259
:1059C00003D122F44074CA6822434C6922F0800259
:1059D000224302608A68C2620A688262984201D1E8
:1059E00009690163012141610169C90703D00169A6
:1059F00021F001010161F0BD002C014000040040D4
:105A00000008004010B501F01F030121046A99400D
:105A10008C430462016A9A401143016210BD000088
:105A200030B5036A026A22F00102026242688469A8
:105A300024F073050C682C4323F002058B682B437C
:105A40000A4DA8420BD123F00805CB6822F440721E
:105A50002B434D6923F0040315438A692A434260AE
:105A6000846149684163036230BD0000002C01403D
:105A700030B5026A036A23F0100303624368846945
:105A80000D6824F4E64444EA05248D6822F02002DF
:105A900042EA05120B4DA8420ED1CD6822F08002D9
:105AA00042EA05124D6923F4406343EA85038D6998
:105AB00022F0400243EA85034360846149688163C0
:105AC000026230BD002C014030B5036A026A22F444
:105AD000807202624268C46923F4007324F0730583
